:100000000C948F070C94B7070C94B7070C94B707A0
:100010000C94B7070C94B7070C94B7070C94B70768
:100020000C94B7070C94B7070C94930E0C94020F22
:100030000C94B7070C94B7070C94B7070C94B70748
:100040000C94B7070C94B7070C94B7070C94B70738
:100050000C94B7070C94B7070C94B7070C943411A1
:100060000C94B7070C94B7070C94B7070C94B70718
:100070000C94B7070C94B7070C94B7070C94B70708
:100080000C94B7070C94B7070C94B7070C94B707F8
:100090000C94B7070C94B7070C94B7070C94B707E8
:1000A0000C94B7070C94B7070C94B7070000000036
:1000B000003E5B4F5B3E3E6B4F6B3E1C3E7C3E1CEE
:1000C000183C7E3C181C577D571C1C5E7F5E1C0034
:1000D000183C1800FFE7C3E7FF0018241800FFE7EB
:1000E000DBE7FF30483A060E2629792926407F05AE
:1000F0000507407F05253F5A3CE73C5A7F3E1C1CC4
:1001000008081C1C3E7F14227F22145F5F005F5F83
:1001100006097F017F006689956A6060606060946F
:10012000A2FFA29408047E040810207E2010080874
:100130002A1C08081C2A08081E101010100C1E0C7F
:100140001E0C30383E3830060E3E0E060000000011
:100150000000005F00000007000700147F147F14F8
:10016000242A7F2A1223130864623649562050003D
:1001700008070300001C2241000041221C002A1C29
:100180007F1C2A08083E0808008070300008080814
:100190000808000060600020100804023E51494534
:1001A0003E00427F400072494949462141494D3352
:1001B0001814127F1027454545393C4A49493141B9
:1001C000211109073649494936464949291E000087
:1001D00014000000403400000008142241141414DC
:1001E0001414004122140802015909063E415D59C8
:1001F0004E7C1211127C7F494949363E41414122D1
:100200007F4141413E7F494949417F090909013EFA
:10021000414151737F0808087F00417F4100204021
:10022000413F017F081422417F404040407F021C33
:10023000027F7F0408107F3E4141413E7F0909094A
:10024000063E4151215E7F09192946264949493216
:1002500003017F01033F4040403F1F2040201F3FDC
:100260004038403F63140814630304780403615961
:10027000494D43007F4141410204081020004141A3
:10028000417F04020102044040404040000307084F
:100290000020545478407F2844443838444444284B
:1002A000384444287F385454541800087E090218F2
:1002B000A4A49C787F0804047800447D400020407A
:1002C000403D007F1028440000417F40007C0478BE
:1002D00004787C080404783844444438FC18242406
:1002E0001818242418FC7C08040408485454542486
:1002F00004043F44243C4040207C1C2040201C3C03
:100300004030403C44281028444C9090907C4464F9
:10031000544C44000836410000007700000041368C
:10032000080002010204023C2623263C1EA1A16112
:10033000123A4040207A3854545559215555794144
:100340002154547841215554784020545579400C1B
:100350001E527212395555555939545454593955FC
:100360005454580000457C410002457D420001453F
:100370007C40F0292429F0F0282528F07C545545AC
:10038000002054547C547C0A097F4932494949323F
:100390003248484832324A4848303A4141217A3A54
:1003A00042402078009DA0A07D39444444393D401E
:1003B00040403D3C24FF2424487E4943662B2FFCCB
:1003C0002F2BFF0929F620C0887E09032054547979
:1003D000410000447D413048484A32384040227A4A
:1003E000007A0A0A727D0D19317D2629292F2826C7
:1003F0002929292630484D402038080808080808CF
:100400000808382F10C8ACBA2F102834FA00007B27
:10041000000008142A142222142A1408950022002D
:1004200095AA005500AAAA55AA55AA000000FF00E7
:10043000101010FF00141414FF001010FF00FF1024
:1004400010F010F0141414FC001414F700FF000056
:10045000FF00FF1414F404FC141417101F10101FD5
:10046000101F1414141F00101010F0000000001FC3
:10047000101010101F10101010F010000000FF10CE
:100480001010101010101010FF10000000FF1400CA
:1004900000FF00FF00001F10170000FC04F41414FC
:1004A0001710171414F404F40000FF00F7141414C8
:1004B00014141414F700F7141414171410101F1048
:1004C0001F141414F4141010F010F000001F101F6B
:1004D0000000001F14000000FC140000F010F010D9
:1004E00010FF10FF141414FF141010101F00000050
:1004F00000F010FFFFFFFFFFF0F0F0F0F0FFFFFF54
:100500000000000000FFFF0F0F0F0F0F38444438AA
:10051000447C2A2A3E147E02020606027E027E02E5
:1005200063554941633844443C04407E201E200604
:10053000027E020299A5E7A5991C2A492A1C4C7241
:1005400001724C304A4D4D303048784830BC625AC8
:10055000463D3E494949007E0101017E2A2A2A2A58
:100560002A44445F444440514A444040444A514034
:100570000000FF0103E080FF000008086B6B0836F5
:1005800012362436060F090F060000181800000066
:100590001010003040FF0101001F01011E00191D55
:1005A0001712003C3C3C3C0000000000F0F89C8E20
:1005B0008783878E9CF8F00000FEFF03030303038C
:1005C000070EFCF80000FEFF0303030303070EFC05
:1005D000F80000FFFF00000000000000FFFF000027
:1005E000FEFF8383838383C7EE7C380000F8FC0E14
:1005F00007030303070EFCF800003F7FE0C0808084
:10060000C0E07F3FFFFF01010101010101FFFF0089
:1006100000FFFF0C0C0C0C1C3E77E3C100007FFFB9
:10062000C0C0C0C0C0E0703F1F00001F3F70E0C0EE
:10063000C0C0E0703F1F00007FFFC1C1C1C1C1E366
:10064000773E1C00001F3F70E0C0C0C0E0703F1F3D
:10065000000000000001FFFF01000000D5F08D1434
:10066000A1C881CFD9F1AF20007F37D09F4EA7D34B
:10067000E9743A1DDCED945452491D7D5229A9A418
:1006800092CAF167B7DB7576BB9D6DBBDD6EB7DBDC
:10069000EDB4E9EC76BB0EBEF2BAD5252B59C95A9A
:1006A0009D4AA552A9743A9D4EA7D3E9743A9D4E2E
:1006B000A7D3E9743A9D4EA7D3E9743A9D4EA7D3C8
:1006C000E9743A9D4EE72E57BBCB95BE3A55A5B17E
:1006D000A8E2545B3EA9944CEEDCF3D2C9189D927B
:1006E000DB1D2FA1724EC9A896CA39C5C7DBFF9F73
:1006F0005A2AA91CCEB3DB61E96D9E08AFDB6DB44D
:10070000DBEDB4D9ED36FAA473B573AE92B5AB9DFB
:1007100063DB6EB7DBED763B7B7ABBDD6EB7A19C0E
:1007200017533BA7E44E39A7A4B2369D6E3AA96C85
:100730003AF5A94FA99E5029B95D75EA53A9AC9223
:100740004EF1BD4D6795724A2AA9702A552AD729BC
:1007500055AE7697AB5D3A9D4EA7D3E9743A9D4E60
:10076000A7D3E9743A9D4EA7D3E9743ABBCEFA2ACF
:100770005B2909054A2595944A2AA9A4928A4A49DF
:10078000E7A45452C99D545249B2AD924A2AA99441
:1007900054CE394E259D93524925955472BA95549D
:1007A0005229BC29A964252B5929955A3A65A34B8E
:1007B000A7D3E9743A9D4EA7D3E9743A9DBB5C2D4B
:1007C0002B2B5D252F57BB743A9D4EA7D3E9DA5DDD
:1007D000AE7C5D5D952A0D4A4DAACA56799BDEA670
:1007E000D3E9743A9D4EA7D3E9743A9D4EA7D3E955
:1007F000743A9D4EA753A9542AD5EA7297BBDCAD33
:100800004E5BF056EB743ABBCE0E9FA5D3C94A5649
:10081000B2D2E9A442221010E0E0C08040700C0285
:10082000625C4040404040807F7F3F10202040403D
:10083000404055555555350A03070E1C3870E040A9
:1008400040E070381C0E0703C0E070381C0E070231
:1008500002070E1C3870E0C009090000000000000B
:10086000000000000000000000000000FF050A1466
:100870002850A04080010101010101010101FF4157
:10088000A15129150B050301010000000000000023
:1008900003050B152951A141FF00000000000000D5
:1008A00001018040A05028140A05FF010101010147
:1008B0000101010103050A142850A0408000000036
:1008C0000000000001018040A05028140A05030127
:1008D0000100000000000000FF00384444443800DC
:1008E000FF010101010101010101FF0139454545F8
:1008F000390101010101010101010101FF01394536
:1009000045453901FF010000000000000001010120
:10091000394545453901FF0101010101010101018D
:10092000FF935539FF395593FF0101010101010181
:10093000010100080CFE87FE0C0800000000010108
:10094000010000003838282828EE7C38100000000C
:10095000000000000000002060FFC3FF60200000D6
:10096000000000010000000010387CEE2828283824
:1009700038000000000000000000FF00387C7C7C94
:100980003800FF010101010101010101FF01397D71
:100990007D7D390101010101010101010101FF0119
:1009A000397D7D7D3901FF0100000000000000015C
:1009B0000101397D7D7D3901FF0101010101010145
:1009C00001010000000D0004000D00000104000002
:1009D000000D0204000D0000030400000B020404DB
:1009E00000020000040407060007010407060007D0
:1009F00000040706070601040002000004040000CA
:100A000000020404070607060204000707060304A1
:100A10000007070602040000000204040B020000A5
:100A2000040400000B020404000700070004000790
:100A3000000703040B02000004040007000D00037C
:100A4000000D070601020706000D0201000D000758
:100A500003000706000D0001000D0007010000075C
:100A6000000D0203000D0706030200000B02040440
:100A70000002000004040000000704050B0200004F
:100A8000040400000B02040400020000040400003F
:100A90000002040407060000040500000706040520
:100AA0000002000004040000000204040B02000025
:100AB000040400000B020404000700000405000009
:100AC000000204040B020000040400000B020404F2
:100AD0000002000004040000000204040B020000F5
:100AE000040400000B0204040006000004040000DB
:100AF00000020404080500000404000008050404C2
:100B00000002000004040000000604040B020000C0
:100B1000040400000B0204040006000004040000AA
:100B20000002040408050000040400000805040491
:100B30000002000004040000000604040B02000090
:100B400004040D0DFF010101010101010101010179
:100B5000FF1F10101010101010101010101F080B95
:100B60000002020200000904000001020200000568
:100B700024001001052401010104240206052406B5
:100B800000010705810310004009040100020A006A
:100B90000000070502024000000705830240000034
:100BA0000403090412010002EF02014041233680D0
:100BB00000010102030141726475696E6F204C4CA3
:100BC000430041726475696E6F204C656F6E61728F
:100BD000646F000000000000040000000900000035
:100BE0000000000000000D000000000000000000F8
:100BF00000000000000004000900000000000000E8
:100C0000000000000000000F0000000000000000D5
:100C100000090000060000000000000000000000C5
:100C2000000D0000000A00000000000000000000AD
:100C30000000000D000400000000000000000000A3
:100C4000000700000000000000000000000000009D
:100C5000040000000000040008000B00000D00006C
:100C60000000000000000000000000000E00040072
:100C70000000000004000B000B0004000000000056
:100C800004000000070000000000000F0400000046
:100C9000000006000000000A000000000000000044
:100CA000000700000000000D000004000009000023
:100CB000040000000B000000000100000000000024
:100CC0000000000000000E00040009000000040005
:100CD0000005000004000000000000000000000A01
:100CE00000000000000F04050000000A0400000BD3
:100CF000000904000B000B000000000000000000D1
:100D000000000800040D00000000040000000000C6
:100D100006000700000000000000000000000000C6
:100D20000000040D000000000400000B000004009F
:100D300000000A0006000B000A00000000000B0083
:100D400004000A00000004000B000000040B000077
:100D5000000004000C00000004000900000B040D5A
:100D6000000500000400000B00000400000000006B
:100D700004000000000704000E000000040005004D
:100D8000000004000000000004000B00000A040042
:100D90000000070000000000000004000B0000003D
:100DA0000400050A010F04000000000A040000000E
:100DB000000000000009000004000005000004001D
:100DC00001000000040000000A0000000C00000008
:100DD0000008000000000400050000000400000CF2
:100DE000000004000000000A0607000000000009DF
:100DF0000E000000000000000000000100000001E3
:100E00000000000100010000010100000000000AD4
:100E10000000040B00000B000400000000000400B0
:100E2000000A000F040000000000060000000A0E87
:100E3000040B0009000004000000000004000B0B7C
:100E400000000401000000000600090E000004007C
:100E50000000000004000000000006000000000A7E
:100E6000060700070000060D0000000A060000004B
:100E7000000006080000000A06000000000006004E
:100E80000700000A06000001000004000B0000003B
:100E900004000B000F0704000000000A0607000012
:100EA00000000600090000000400000A090006080E
:100EB0000000000A060000000000060000000C0010
:100EC00006000900000006000000000A060D0000F0
:100ED000000A0608000000000600000007000000ED
:100EE000000009000608000000000600000D000ACE
:100EF00006000000000A06000700070006000000C8
:100F000000000000000000000000000000000000E1
:100F1000000000000000000000000000B1111124DA
:100F20001FBECFEFDAE0DEBFCDBF11E0A0E0B1E041
:100F3000ECECF4E302C005900D92AA38B107D9F7A2
:100F400026E0AAE8B1E001C01D92AD3BB207E1F78F
:100F500017E0CFE8D7E004C02197FE010E945E1A97
:100F6000CE38D107C9F70E94CE110C94641A0C94A4
:100F70000000E9E6F2E0A0E0B8E000800EBC8111DC
:100F8000012C1197A0FDFDCF0192B9F70DB4089582
:100F900080E0E9E6F2E081118FEF002481938193F4
:100FA000819381930394D1F70895480F592F511DD0
:100FB0001416150684F5803891056CF597FF02C06C
:100FC00090E080E04138510514F040E850E0481BC3
:100FD000FB01E770FF2721E001C0220FEA95EAF745
:100FE00077FF02C0695F7F4FFB0133E0F595E7951E
:100FF0003A95E1F7F695FE2FEE27F795E795E80F7E
:10100000F91FE759FD4F415030F08191DF011197F1
:10101000822B8C93F8CF0895FC0180911B028823CA
:1010200011F13FB7F89482E08093E9002091F2003B
:10103000822F90E01816190614F481E090E08823BE
:1010400039F0289844E640931A024091F100408319
:10105000222339F02091F200211103C02BE62093C6
:10106000E8003FBF08958FEF9FEF08952FB7F894E2
:1010700083E08093E9009091E800892F807295FFCA
:1010800004C09091F20080E4891B2FBF08958091E5
:10109000120281110DC082E080930E0284E08093E1
:1010A0000F02109211021092100281E0809312023E
:1010B0008EE092E00895CF93DF931F92CDB7DEB715
:1010C0006983DC01ED91FC910280F381E02D41E028
:1010D00050E0BE016F5F7F4F09950F90DF91CF9178
:1010E000089583E08093E9008091F200882319F04D
:1010F0008AE38093E80008950E94360890E00895FE
:10110000CF93DF931F92CDB7DEB7FC018485958521
:1011100097FD08C02FEF3FEF358724870F90DF91B1
:10112000CF910895CE0101960E940C08019719F401
:10113000898190E0F3CF8FEF9FEFF0CF0F931F9354
:10114000CF93DF931F92CDB7DEB78C01FC0184856E
:10115000958597FF0BC0CE0101960E940C08019760
:1011600071F4898190E0F80195878487F80184857E
:1011700095850F90DF91CF911F910F9108958FEF7B
:101180009FEFF1CFFC018485958597FD0BC09FB73C
:10119000F89482E08093E9008091F2009FBF90E094
:1011A000019608959FB7F89482E08093E9008091BA
:1011B000F2009FBF90E0089540910802509109020B
:1011C000209106023091070242175307B4F4909120
:1011D000E8009570E1F39091E80092FD19C08093CA
:1011E000F100809108029091090201968F7399276E
:1011F000892B19F48EEF8093E8008091080290917A
:1012000009020196909309028093080281E00895F3
:1012100080E00895DF92EF92FF920F931F93CF9398
:10122000DF93D82E8A01EB017B01E40EF51ECE156B
:10123000DF0559F0D7FE12C0FE0184910E94DC0840
:1012400021968111F4CF0FEF1FEFC801DF91CF91ED
:101250001F910F91FF90EF90DF9008958881EECF5E
:101260000F931F93CF93DF931F92CDB7DEB782E02A
:10127000898342E450E06EE57BE080E80E940A0941
:101280000E944708DC0112960D911C910115110571
:1012900089F0D801ED91FC910280F381E02DBE012F
:1012A0006F5F7F4FC801099597FD04C0F801008565
:1012B0001185ECCF89810F90DF91CF911F910F9114
:1012C0000895615030F02091F100FC0120830196D7
:1012D000F8CF289884E680931A020895AF92BF92BF
:1012E000CF92DF92EF92FF920F931F93CF93DF93F2
:1012F0006C017B018B01040F151FEB015E01AE1821
:10130000BF08C017D10759F06991D601ED91FC9142
:101310000190F081E02DC6010995892B79F7C5016F
:10132000DF91CF911F910F91FF90EF90DF90CF90C1
:10133000BF90AF9008953FB7F89480918B01909142
:101340008C01A0918D01B0918E0126B5A89B05C09E
:101350002F3F19F00196A11DB11D3FBFBA2FA92F34
:10136000982F8827BC01CD01620F711D811D911D31
:1013700042E0660F771F881F991F4A95D1F708959D
:101380008F929F92AF92BF92CF92DF92EF92FF9295
:101390006B017C010E949B094B015C01C114D104CB
:1013A000E104F104B9F00E949B09681979098A09DE
:1013B0009B09683E73408105910580F321E0C21AC4
:1013C000D108E108F10888EE880E83E0981EA11C80
:1013D000B11CE4CFFF90EF90DF90CF90BF90AF9023
:1013E0009F908F9008958F929F92AF92BF92CF92CD
:1013F000DF92EF92FF920F931F93CF93DF936C01D5
:101400007B018A0180910E01882309F45CC08091E0
:101410001B02882309F457C080910D0280FF05C08C
:101420008091E00082608093E000E801B12C8AEFB7
:10143000A82E93E0892E2AE3922E209711F4BB2048
:10144000D9F10E94360881110AC0AA94AA20D9F1C4
:1014500061E070E080E090E00E94C009EECF8C1760
:101460001D0611F00CF08C2F9FB7F8948092E900C4
:101470002091E80025FD02C09FBFDFCF282F30E07C
:10148000C21BD30BF701815020F041914093F10032
:10149000FACFE20EF31EBB2021F09092E800B12CAF
:1014A000EBCF8091E80085FDE7CF9092E800BB2468
:1014B000B394209709F3F3CF5D9884E680930C02F0
:1014C000101611063CF081E090E0F60193838283D0
:1014D00010E000E0C801DF91CF911F910F91FF90C4
:1014E000EF90DF90CF90BF90AF909F908F90089536
:1014F0008F929F92AF92BF92CF92DF92EF92FF9224
:101500000F931F93CF93DF93EC01FA01C4903196B0
:1015100094914E5F5F4FAC2DB0E02223E1F001E0EB
:1015200010E0892F877011F410E000E0E92FE695B4
:10153000E695E695E00FF12FF11DEA9F8001EB9F04
:10154000100DFA9F100D1124209FF001219FF00D26
:1015500011244E0F5F1F8D010C0F1D1F1016110659
:101560000CF098C0C038D1050CF094C09B01290F35
:10157000311D121613060CF08DC0603471050CF08D
:1015800089C04115510509F485C0F62FF770EF2E7B
:101590009B0177FF02C0295F3F4FE3E03595279518
:1015A000EA95E1F7F22F77FF04C0EE2011F0FFEF8C
:1015B000F20F222733272C1B3D0BD7FD02C030E052
:1015C00020E0FC2C003811051CF080E8F82EFC1AF5
:1015D000F21A6F2F0F2E000C770B162F1095FF3F6E
:1015E0000CF010E0E1E0892F877009F4E0E09695B7
:1015F000969596959E0F690F711D6930710514F0CF
:1016000098E09F1BD12EDF0E6D2D70E8670350010F
:101610001124B5016C0F7D1F620F731FC19E200D39
:10162000311D1124420F531F2E2D0E2C000C330B95
:101630009F0F9D1579F1EB01C759DD4F10E000E0D8
:101640000F1510F5FA01E00FF11FE491F0E04F01E2
:10165000022E02C0880C991C0A94E2F7D7FC03C042
:10166000888188298883EE2059F086E08D1544F022
:101670005E01E0E8AE0EB11CF5018081892980830E
:101680000F5F1F4F2196DCCFD3944A0F5B1F60582A
:101690007F4FCFCFDF91CF911F910F91FF90EF90B0
:1016A000DF90CF90BF90AF909F908F9008952D9A2C
:1016B0000895BC0190E080E00C94C0098FB1809542
:1016C000807F669B88601C9B8460089520E191E088
:1016D00061FD94E060FD990F62FD9295687F269F01
:1016E000D0011124A80FA759BD4F8C9140FF03C012
:1016F000892B8C93089590958923FBCFDF92EF92ED
:10170000FF920F931F93CF93DF937C01D22E8B0117
:10171000040F111DEB0177FF02C0D0E0C0E0C8014B
:101720000134110514F080E490E0C817D9075CF487
:1017300080E8E816F10428F44D2DBE01C7010E948F
:10174000660B2196ECCFDF91CF911F910F91FF9007
:10175000EF90DF9008950F931F93CF938C01C62FC6
:10176000462F70E060E00E94D5074C2F6EE370E0DA
:10177000C8010E94D50721E04FE370E060E0C80196
:101780000E947E0BC8018C0F911D21E04FE370E099
:1017900060E00197CF911F910F910C947E0B2F92D7
:1017A0003F924F925F926F927F928F929F92AF92F1
:1017B000BF92CF92DF92EF92FF920F931F93CF933E
:1017C000DF9300D000D01F92CDB7DEB76D30C9F0E7
:1017D000409002016090FE017090FF01042D10E026
:1017E0006A3049F51092FD011092FC0183E0000F70
:1017F000111F8A95E1F7600E711E7092FF016092D1
:10180000FE0181E090E00F900F900F900F900F90ED
:10181000DF91CF911F910F91FF90EF90DF90CF90CC
:10182000BF90AF909F908F907F906F905F904F9000
:101830003F902F9008952090FC013090FD01E5E04D
:101840006E9FC001112484559F4F9D838C8361013D
:10185000512CF5E05F1651F18C819D810196EC8150
:10186000FD81F491F9839D838C83430128E02A83D1
:10187000898181708B8376018E2D8C198415E0F41B
:10188000B12CA12CA414A0F490E8E916F10450F4B2
:10189000B4016A0D7B1D6034710520F44B81C701D2
:1018A0000E94660BEFEFAE1ABE0AECCF1982DDCFB5
:1018B000FFEFEF1AFF0AE0CF2981269529838A815D
:1018C00081508A83800E911E8111D2CF5394C00E15
:1018D000D11E96E05912BDCFC101459C800D911DCE
:1018E00011249093FD018093FC018BCF9091000215
:1018F000982329F490910102982381E009F480E073
:10190000089580E00C94B9071F93CF93DF93DC0117
:1019100030E020E050E040E011E0C1E0D0E02617E8
:10192000370791F114968C911497811115C0149674
:101930001C93149712968D919C911397ED91FC91A5
:101940001197E80FF91FE4911596EC9315970196FE
:1019500013969C938E93129714969C9114971596B8
:101960008C911597892349F0FE01022E02C0EE0FDB
:10197000FF1F0A94E2F74E2B5F2B990F14969C934E
:1019800014972F5F3F4FCBCFCA01DF91CF911F91AB
:101990000895AF92BF92CF92DF92EF92FF920F9392
:1019A0001F93CF93DF936FE38EE290E00E94AB0B27
:1019B0006FE080E790E00E94AB0B109267028CE032
:1019C000D82E96E0C92E21E3B22E37E3A32EC09184
:1019D0006702C63008F046C0109266020C2F10E075
:1019E000CD9D70011124D0916602D530B8F5C53077
:1019F00091F5A09246028D2F90E020912202309125
:101A000023020217130759F420912002309121027A
:101A10002817390721F420910502211118C0C89E0A
:101A2000F001C99EF00D1124E95BFD4FE00FF11F9D
:101A3000DD9DB00111246D5F7F4F809146022081B2
:101A400048E558E08E0D9F2D911D0E94780ADF5FBA
:101A5000D0936602C8CFB0924602CDCFCF5FC0937D
:101A60006702B5CFDF91CF911F910F91FF90EF905B
:101A7000DF90CF90BF90AF900895089590E080E000
:101A800008958F929F92AF92BF920F931F93CF931F
:101A9000DF93CDB7DEB7A1970FB6F894DEBF0FBEC8
:101AA000CDBF19A2423008F44AE08E010F5D1F4FEE
:101AB000842E912CB12CA12CA50194010E942D1AE9
:101AC000E62FB901CA01EA3044F5E05DD801EE9392
:101AD0008D01232B242B252B79F790E080E01097A4
:101AE00069F0FD0101900020E9F73197AF014A1B31
:101AF0005B0BBD0189EB96E00E946E09A1960FB6C3
:101B0000F894DEBF0FBECDBFDF91CF911F910F9133
:101B1000BF90AF909F908F900895E95CD7CFFC0164
:101B200001900020E9F73197AF01481B590BBC0128
:101B300089EB96E00C946E097F928F929F92AF9200
:101B4000BF92CF92DF92EF92FF920F931F93CF93AA
:101B5000DF9310926802109267028EE1782EC6E041
:101B600094E0C92ED12CE12CF12C22E0822E912C74
:101B7000A12CB12C04E012E0D1E080916702863004
:101B800008F0AFC010926602809166022091670251
:101B9000853008F0A2C0309165028C9FC0011124ED
:101BA000FC01379DE00DF11D112430E0E20FF31F21
:101BB000ED52F44FE491895B9D4F820F931FDC013E
:101BC000EC93E130B1F40E948D19A70196010E94B7
:101BD000FB1960934602E091660280916702CE9FF6
:101BE000F0011124E95BFD4FE80FF11D8081680FC2
:101BF00060838091660220916702C89FC001112412
:101C0000895B9D4F820F911DFC0180818530B1F46D
:101C10000E948D19A50194010E94FB196093460250
:101C2000E091660280916702CE9FF0011124E95B8A
:101C3000FD4FE80FF11D8081680F6083609166029F
:101C4000462F50E070916702272F30E0C49FC001FB
:101C5000C59F900D1124FC01E85DFD4FE20FF31FBD
:101C60001082895B9D4FDC01A20FB31F8C917530F0
:101C700028F59FEF980F963008F4D08399EF980FCE
:101C8000943068F08B30D0F0C49FF001C59FF00D08
:101C90001124E85DFD4FE20FF31F00830FC0C49FC6
:101CA000F001C59FF00D1124E85DFD4FE20FF31F19
:101CB0001083909168029F5F909368028C508430EB
:101CC00040F430932702209326025093250240933C
:101CD00024026F5F6093660257CF2F5F20936702E5
:101CE0004CCF85E090E090932302809322021092E3
:101CF00021021092200290931F0280931E021092E4
:101D00001D0210921C02DF91CF911F910F91FF9045
:101D1000EF90DF90CF90BF90AF909F908F907F908B
:101D200008950C94E5191F920F920FB60F9211248B
:101D30008F939F938091E1009091E100937F909326
:101D4000E10083FF0FC01092E90091E09093EB0057
:101D50001092EC0092E39093ED0010921B0298E039
:101D60009093F00082FF22C093E09093E90090915D
:101D7000F200992319F09AE39093E80090910C02F5
:101D8000992341F090910C02915090930C02911183
:101D900001C05D9A90911A02992341F090911A0224
:101DA000915090931A02911101C0289A84FF18C093
:101DB0008091E2008E7E81608093E2008091E1005C
:101DC0008F7E8093E10080910D028E7E80618093F2
:101DD0000D029F918F910F900FBE0F901F9018953D
:101DE00080FFF7CF8091E2008E7E80618093E200D9
:101DF0008091E1008E7E8093E10080910D028E7EC5
:101E00008160E5CF1F920F920FB60F921124CF92EF
:101E1000DF92EF92FF920F931F932F933F934F9375
:101E20005F936F937F938F939F93AF93BF93EF9342
:101E3000FF93CF93DF93CDB7DEB76C97DEBFCDBFF7
:101E40001092E9008091E80083FF25C068E0CE0190
:101E500045960E94610982EF8093E8008D8987FF93
:101E600039C09091E80090FFFCCF982F907609F050
:101E700034C19E894F89588D2F89F88C911131C0BA
:101E8000803861F580910B028093F1001092F1008F
:101E90008EEF8093E8006C960FB6F894DEBF0FBE0D
:101EA000CDBFDF91CF91FF91EF91BF91AF919F9106
:101EB0008F917F916F915F914F913F912F911F91E2
:101EC0000F91FF90EF90DF90CF900F900FBE0F908B
:101ED0001F9018959EEF9093E800C7CF1092F100E5
:101EE000D5CF913059F48111D3CF4130510581F6CE
:101EF00080910B028D7F80930B02CACF933049F4FF
:101F00008111C6CF4130510519F680910B028260D4
:101F1000F2CF953041F48091E80080FFFCCF20683B
:101F20002093E300B5CF963009F0A9C00B8D1C8D2E
:101F300022E01092E9001092090210920802F212B7
:101F40002EC010920702109206020E9430091F82D2
:101F500099E09983FA8291E09E8390EA98879AEFBC
:101F600099872091080230910902275F3F4F3C83F7
:101F70002B838D831092E9001092090210920802BF
:101F8000109307020093060249E050E0BE016F5F24
:101F90007F4F80E00E940A090E94300979CF109398
:101FA0000702009306020E944708DC0112960D9179
:101FB0001C910115110509F451C1D801ED91FC9155
:101FC0000480F581E02DBE016B5E7F4FC80109954D
:101FD000009709F03EC1F80100851185EACFF3E0D2
:101FE000FF120EC08F89882309F440C0823061F44B
:101FF00040E860E182EC9BE00E947E11811148CFB5
:1020000081E28093EB0047CF813029F440E86BE018
:1020100086EB9BE0F1CF833099F70E944708DC0103
:102020001296ED90FC908E010F5F1F4F6801E11436
:10203000F10479F0D701ED91FC910680F781E02D54
:10204000B801C7010995080F111DF701E084F1845B
:10205000EECFD8011C92F60101900020E9F73197EC
:10206000BF016C197D0940E0C601C6CF60EA7BE084
:10207000FB01449150E080E80E940A0909CF9730A3
:1020800009F4BECF983021F481E08093F10000CFB5
:10209000993009F0FDCE837009F0B2CFE4E1F1E0B0
:1020A00081E031E096E32191222371F08093E900F1
:1020B0003093EB00DF0111972C912093EC0090936B
:1020C000ED008F5F873079F78EE78093EA001092FA
:1020D000EA008F8980931B02DBCE8B8D9C8D109242
:1020E000E90010920902109208029093070280936F
:1020F0000602898D811192C08E899D89913A49F499
:10210000813209F07DCF47E050E067E071E080E088
:10211000B3CF913209F074CF833269F48F89988DEF
:10212000B0E0A0E08093030190930401A093050127
:10213000B0930601ADCE803269F48091E80082FF51
:10214000FCCF67E087E091E00E9461098BEF80930C
:10215000E8009ECE823209F09BCE8F8980930E01DB
:10216000EEEFFFE7859194918B3F9C4D51F1E0E0BC
:10217000F8E08091070190910801A0910901B091C8
:102180000A01803B9440A105B105F1F480910E0154
:1021900080FD1AC0EE3F8AE0F80789F587E797E7E8
:1021A000918380838091600080930A0288E19BE0A4
:1021B0000FB6F894A895809360000FBE90936000CE
:1021C00067CEEEEFFAE0D5CF8081918187379747D0
:1021D00009F05ECEA89580916000886180936000D0
:1021E00080910A0280936000EE3F2AE0F20789F0B6
:1021F0008091FE0A9091FF0A9183808349CE80816D
:1022000091818737980751F29093FF0A8093FE0AD5
:10221000C5CF1092FF0A1092FE0A3ACE0E944708DC
:10222000DC0112960D911C910115110509F4E8CEFF
:10223000D801ED91FC910190F081E02DBE016B5E23
:102240007F4FC8010995811123CEF80100851185C2
:10225000EBCF181619060CF41BCED2CEF1E0FF120C
:10226000BECE64EA7BE004CF1F920F920FB60F92AE
:1022700011242F933F938F939F93AF93BF9380919C
:102280008F0190919001A0919101B09192013091B4
:102290008A0123E0230F2D3758F50196A11DB11DAA
:1022A00020938A0180938F0190939001A0939101D4
:1022B000B093920180918B0190918C01A0918D013E
:1022C000B0918E010196A11DB11D80938B01909359
:1022D0008C01A0938D01B0938E01BF91AF919F911E
:1022E0008F913F912F910F900FBE0F901F901895D7
:1022F00026E8230F0296A11DB11DD2CFEF92FF92C7
:102300000F931F93CF93DF93F82E192FE62E042FF0
:1023100081E0860F880F0E94DC0883E00E94DC08C1
:10232000CF2DD12FEC0EFD2EF11CCE15DF05B9F00F
:1023300007FF13C0FE0184910E94DC08182F80E083
:102340000E94DC08812321968111EFCFDF91CF918C
:102350001F910F91FF90EF9008958881EDCF81E05C
:10236000F5CFE9E6F6E01382128288EE93E0A0E072
:10237000B0E084839583A683B7838EE191E0918357
:1023800080838FEF9FEF95878487E9EBF6E01382D8
:10239000128280E391E0918380830895CF93DF934D
:1023A000CDB7DEB72A970FB6F894DEBF0FBECDBF0C
:1023B000789484B5826084BD84B5816084BD85B520
:1023C000826085BD85B5816085BD80916E0081602C
:1023D00080936E00109281008091810082608093D2
:1023E00081008091810081608093810080918000D4
:1023F0008160809380008091910082608093910041
:102400008091910081608093910080919000816023
:10241000809390008091C10084608093C10080917E
:10242000C10082608093C1008091C100816080936F
:10243000C1008091C30081608093C3008091C0007F
:1024400082608093C0008091C20081608093C2004E
:1024500080917A00846080937A0080917A00826013
:1024600080937A0080917A00816080937A008091D5
:102470007A00806880937A0010921B0210920B02FF
:1024800010920D028091D70081608093D70080EA7E
:102490008093D80089B5806189BD89B5826089BD86
:1024A00009B400FEFDCF61E070E080E090E00E94A2
:1024B000C0098091D8008F7C80618093D800809182
:1024C000E000807F8093E0008091E1008E7E809329
:1024D000E1008DE08093E200559A209A81EC809390
:1024E0007C0085B1806F85B984B1877E84B984B161
:1024F000876E84B95E9A5F988AB1806D8AB9769A40
:102500006E9881B3806F81BB899880B38D7080BBDA
:1025100080E58CBD81E08DBD85E090E00E94590B87
:102520005F9A85E090E00E94590B5E985C98ECE51C
:10253000F6E089E696E024912EBD00000DB407FE7A
:10254000FDCF31968E179F07B1F75C9A81E8809393
:102550006400809165008160809365000E94810C19
:102560000E945E0B87FF15C05C9885EA8EBD000057
:102570000DB407FEFDCF5C9A2E982F982D98809170
:10258000640080628093640081E083BF889513BEFD
:10259000FCCF0E945E0B82FF48C02D980E945E0B0C
:1025A00084788438E1F40E94570B88EC90E00E9414
:1025B000590B2F9882E090E00E94E5198F3F29F097
:1025C0006FEF82E090E00E94ED1984EF91E00E94AD
:1025D000590B2F9A0E945E0B84788438D9F30E949D
:1025E0005E0B84718431E1F40E94570B88EC90E01B
:1025F0000E94590B2E9882E090E00E94E5198823F2
:1026000029F060E082E090E00E94ED1984EF91E013
:102610000E94590B2E9A0E945E0B84718431D9F36B
:1026200088EC90E00E94590BB4CF0E94570B82E0D7
:1026300090E00E94910E882309F484C03E9A3F9A4C
:1026400081E090E00E94910E082F0470502E81FFCF
:1026500012C001112E9801EF1FEF88E0A82EB12CB7
:102660009CE6E92EF12C0E945E0B86FF6EC02E9A2E
:102670002F9A0E94570B82E390E00E94590B0E9410
:102680005E0B182F8111F7CF89E1809300010E9422
:10269000C8071092FF011092FE011092FD011092E6
:1026A000FC0189E696E09A8389831C821B821D8245
:1026B0001E8268E070E0CE0101960E94840C0196B3
:1026C0005C0168E070E0CE0101960E94840C0196E6
:1026D0007C0161E070E0CE0101960E94840C082F1D
:1026E0001A141B040CF038C11E141F040CF034C162
:1026F0006701F3E0D594C794FA95E1F7F7E0EF228C
:10270000FF24EF2819F02FEFC21AD20A5524539450
:10271000F12CE12C912C812C442443948C149D04A5
:102720000CF01AC166246394712C61E070E0CE0154
:1027300001960E94840C892B09F0D1C032E0630E0F
:10274000711CF3CF3E983F987BCF552029F0043081
:10275000110511F42E9A2F9881E00E94B907980173
:1027600017FF04C022273327201B310B2770332784
:10277000C80117FD0796B3E095958795BA95E1F7DF
:1027800017FF05C00197A501421B530B9A01BC011D
:102790007695762F66277795679567597D4FB0E0D8
:1027A000A0E01501221A330A8E3F5FEF950709F466
:1027B00046C048E550E0FD01EC5FF94F4F013B0199
:1027C000F0E86F0E711C8F3F9807C9F0F401E41B0D
:1027D000F50B44906701C41AD50AC60ED71EE42D26
:1027E000F0E0022E02C0EE0FFF1F0A94E2F7FA8714
:1027F000E987F6014080F9854F2AF60140822115CC
:102800003105C9F0F401E41BF50B44906701C41ACB
:10281000D50AC60CD71CE42DF0E0022C02C0F595B9
:10282000E7950A94E2F7FA87E987F6014080F9858F
:102830004F2AF60140824150510909F0C4CF019658
:10284000A85ABF4F60587F4FA03BB10509F0ACCFED
:102850000E94810C8FE090E00E94590B0F5F1F4F88
:102860000931110509F0FFCE552011F02F9A2D984E
:1028700080E991E00E94590B0E94570B81E090E0A3
:102880000E94910E80FFF7CE8AE090E00E94910EA8
:102890009FEF980F9E3F08F0EECE22E330E030939A
:1028A000FD012093FC0128E330E03093FF012093E9
:1028B000FE010BE010E0682F89EB96E00E94CF0B41
:1028C000C8010E94910E0F5F1F4F0131110599F74A
:1028D0000E94810C88EE93E00E94590BCCCEB3018C
:1028E000CE0101960E94840C019630E020E028176A
:1028F000390780F501111529652D660F41F5A401F1
:102900004F5F5F4F4930510588F470E8E716F104D6
:102910006CF4F401F695FE2FEE27F795E795EE0D92
:10292000FF1DE759FD4F7081172B1083EFEFEE1A53
:10293000FE0A55245394EA14FB042CF04A01552452
:102940005394F12CE12C2F5F3F4F162FD0CF562EF2
:10295000612FF9CF0425E2CE1092FD011092FC0107
:1029600008E310E01093FF010093FE0188E391E07B
:102970000E948F0D8DE090E09093FD018093FC010B
:102980001093FF010093FE018BE391E00E948F0DF5
:102990008AE590E09093FD018093FC011093FF0184
:1029A0000093FE0185E491E00E948F0D87E690E0A0
:1029B0009093FD018093FC011093FF010093FE01B1
:1029C00088E491E00E948F0D0E94810CA8E3CA2E3A
:1029D000D12CB0E2AB2EB12C0E945E0B83FD35C032
:1029E0000E945E0B82FFF8CF10E000E0F8E3EF2ECC
:1029F000F12C40E0B701C8010E94660BFFEFEF1A0F
:102A0000FF0A20E4E216F104A1F70F5F1F4F0F3712
:102A1000110561F71092FD011092FC01D092FF01A7
:102A2000C092FE018DE491E00E948F0DB092FD01F5
:102A3000A092FC01D092FF01C092FE0183E591E0DB
:102A40000E948F0D0E94810CC7CF809164008E7F01
:102A50008093640080917A00806480937A008091F2
:102A60007A0086FDFCCF00917800109179000E94D9
:102A70009B09AB01BC01C801B0E0A0E0DC019927D3
:102A800088278C019D01040F151F261F371FC901C0
:102A9000B8012091640021602093640061157105E4
:102AA0008105910511F00E94DC190E949C0D06E041
:102AB00088248A94982C3CE0732E8FB7F894409128
:102AC0008F015091900160919101709192018FBF9F
:102AD00080919301882349F01092930180E090E067
:102AE000892B59F30E940000E6CF80919401142FA6
:102AF000181B812F90910001191740F48F5F8917DF
:102B000068F781E083BF889513BEE8CF21E020936A
:102B100093014093940180910202909103020196E7
:102B2000909303028093020287709927892B29F4DE
:102B30008091050282278093050280910102809393
:102B400000020E945E0B809301020E94C80781E090
:102B50008093020123E030E03093FD012093FC01DB
:102B600082E090E09093FF018093FE0184E691E083
:102B70000E948F0D82E190E09093FD018093FC0113
:102B80008CE090E09093FF018093FE018AE691E053
:102B90000E948F0D809165028B3109F017C124E3EB
:102BA000E22EF12CF092FD01E092FC0180E190E038
:102BB0009093FF018093FE018FE691E00E948F0DBC
:102BC000F092FD01E092FC0184E290E09093FF011D
:102BD0008093FE0189E791E00E948F0D84E00E94BE
:102BE000760C8823B1F0809165029091040221E077
:102BF0009227909304022091010121110AC09111A2
:102C000008C08F5F8C3109F407C1809365020E9470
:102C10009C0D80910402811114C380E80E94760CFF
:102C20008823F9F080911C0290911D0220911E02D0
:102C300030911F020197089FF001099FF00D1124A8
:102C4000E20FF31FE85DFD4F4081423098F790930B
:102C5000FB018093FA0197FD04C090931D028093BD
:102C60001C0280E10E94760C882309F180911C02ED
:102C700090911D02089FF001099FF00D11242091F1
:102C80001E0230911F02E20FF31FE85DFD4F019617
:102C9000369620812230D8F79093FB018093FA0179
:102CA0008530910524F490931D0280931C0280E2EC
:102CB0000E94760C882301F180911E0290911F02E0
:102CC00020911C0230911D02029FA001039F500D14
:102CD00011240197FC01E40FF51FE85DFD4F2081F1
:102CE0002230B8F79093FB018093FA0197FD04C05E
:102CF00090931F0280931E0280E40E94760C88232A
:102D000009F180911E0290911F0220911C023091C6
:102D10001D02029FA001039F500D11240196FC018A
:102D2000E40FF51FE85DFD4F20812230B8F7909346
:102D3000FB018093FA018630910524F490931F02E1
:102D400080931E0288E00E94760C882309F49EC0BE
:102D500080911E0290911F0240911C0250911D0211
:102D6000049FF001059FF00D1124E95BFD4FE80F72
:102D7000F91F2081853091050CF051C0211151C0FF
:102D8000A0912002B0912102609122027091230251
:102D90000A9F90010B9F300D1124D901A85DBD4FF2
:102DA000A60FB71FAC91A11171C0295B3D4FD9018E
:102DB000A60FB71F6C9160831C9250932102409321
:102DC0002002909323028093220260C01092FD01A2
:102DD0001092FC019AE1E92EF12CF092FF01E092B1
:102DE000FE0183E891E00E948F0D80E290E09093D5
:102DF000FD018093FC01F092FF01E092FE016091E1
:102E0000650270E06F5F7F4F072E000C880B990BF7
:102E10004AE00E94410DE2CE10926502F8CE2223D4
:102E2000A9F160912002709121024617570729F6F7
:102E300060912202709123028617970709F0BDCF97
:102E40002093460285309105A4F4253030F42F5F9D
:102E5000253009F449C020934602209146023BEFF9
:102E6000320F323030F4263009F440C036E030936F
:102E70004602049F9001059F300D1124295B3D4FB0
:102E8000820F931F20914602FC0120830E94C90CEF
:102E9000109165021B3108F0D8C120911E023091BB
:102EA0001F0285E32530310509F08FE28093460249
:102EB00080911C0290911D02789EB001799E700D48
:102EC00011246F5F7F4F729EC001739E900D11247D
:102ED0003091460220E042E45BE0830F911D0E94A6
:102EE000780A0E94810CFACD21E0B5CF25E020932D
:102EF0004602BFCF01968530910509F0B0C185E04B
:102F0000809366028093670280916802809301013A
:102F100081E08093E00180912602909127029093B6
:102F2000AB018093AA0120912402309125023093B5
:102F3000AD012093AC01029FF001039FF00D11241D
:102F4000E95BFD4FE80FF91F80818C50990B90933E
:102F5000AF018093AE0185E0382E442443948091E4
:102F6000E001882309F461C11092A301089FF001D8
:102F70001124EC55FE4F208131813093A201209322
:102F8000A101228133813093A00120939F012481EC
:102F9000358130939E0120939D0181508093E00103
:102FA00080919D0190919E01009709F015C11092AA
:102FB0009C0110929B0190929A0180929901E0905D
:102FC000A101F090A20120919B0130919C01E20EA1
:102FD000F31EF092A201E092A101C0909F01D09057
:102FE000A0012091990130919A01C20ED31ED09276
:102FF000A001C0929F0135E0E316F10410F0409269
:10300000A30145E0C416D10410F04092A301209121
:10301000A3012111A4CF0C9DF0010D9DF00D1124F1
:10302000E95BFD4FEE0DFF1D10811F8344E0149FEF
:1030300090011124820F931F089F9001099F300D6A
:103040001124F901EE53F64F8491F901ED53F64F37
:103050004491F901EC53F64F249020929801F90124
:10306000EB53F64F549050929701F901EA53F64F03
:10307000649060929601F901E953F64F1491109310
:103080009501442311F17C9CB0017D9C700D1124AD
:10309000695F7F4F6034710560F47E9C90017F9C76
:1030A000300D1124215D3F4F820F932F911D0E94FF
:1030B000D5073C9CF0013D9CF00D1124EF51FE4FD3
:1030C000EE0DFF1D80818F5F8083552029F13C9C90
:1030D00050013D9CB00C1124C5018F519E4F5C01E5
:1030E000AE0CBF1CF501F081F8877C9CB0017D9C83
:1030F000700D11246F5F7F4F620D711D7E9CC001AA
:103100007F9C900D112421E0452DC5960E947E0BD9
:1031100088858F5FF5018083153031F52F81275F1A
:103120007C9CB0017D9C700D11246D5F7F4F7E9C57
:10313000C0017F9C900D112448E558E0C1960E9483
:10314000780A0C9DF0010D9DF00D1124E85DFD4FF6
:10315000EE0DFF1D8081823039F480910101815094
:103160008093010123E0208333E0361508F457C033
:10317000E62DF0E0F0939E01E0939D011430B8F449
:10318000A091E001AF5FA093E0010A9FD00111245C
:10319000AC55BE4F1196FC92EE921396DC92CE92F5
:1031A0001297E12FF0E01596FC93EE9314973C9C58
:1031B000C0013D9C900D11248F519E4FE80EF91EC9
:1031C000F70180818B3010F04092A3018091A30120
:1031D000882309F4E5CEC3CE8130910549F490935C
:1031E0009C0180939B0110929A0110929901E7CE65
:1031F0008230910559F410929C0110929B0121E0BC
:1032000030E030939A0120939901D9CE8330910513
:1032100009F0D5CE90929C0180929B01E4CF44E0CE
:103220006412ACCF4092A301A9CF8091010120E0AC
:10323000811121E046E158E068E270E08DE090E025
:103240004ECE0E94C90C10916502109205020E9498
:10325000C90C1B3108F045CE90E080E032E0DC0183
:10326000AF51BE4FFC01E85DFD4F26E0215009F44F
:1032700041CE1C924081433009F430831596369636
:10328000F5CF8F929F92AF92BF92CF92DF92EF9243
:10329000FF92CF93DF93EC01688179818A819B81D2
:1032A000611571058105910521F464E279ED8BE5E5
:1032B00097E02DE133EF41E050E00E94FB19490116
:1032C0005A019B01AC01A7EAB1E40E941A1A6B01F2
:1032D0007C01ACEEB4EFA50194010E94281AC60E41
:1032E000D71EE81EF91EF7FE06C081E0C81AD108F5
:1032F000E10880E8F80AC882D982EA82FB82C70125
:10330000B6019F77DF91CF91FF90EF90DF90CF9044
:10331000BF90AF909F908F9008958F929F92AF92A1
:10332000BF92CF92DF92EF92FF9260910F01709166
:1033300010018091110190911201611571058105B3
:10334000910521F464E279ED8BE597E02DE133EF0F
:1033500041E050E00E94FB1949015A019B01AC0178
:10336000A7EAB1E40E941A1A6B017C01ACEEB4EF3B
:10337000A50194010E94281AC60ED71EE81EF91E48
:10338000F7FE06C081E0C81AD108E10880E8F80A13
:10339000C0920F01D0921001E0921101F09212013F
:1033A000C701B6019F77FF90EF90DF90CF90BF905D
:1033B000AF909F908F90089560930F0170931001CC
:1033C00080931101909312010895F999FECF92BD57
:1033D00081BDF89A992780B50895262FF999FECFD7
:1033E0001FBA92BD81BD20BD0FB6F894FA9AF99A22
:1033F0000FBE01960895052E97FB1EF400940E94BF
:10340000121A57FD07D00E942D1A07FC03D04EF464
:103410000C94121A50954095309521953F4F4F4F7F
:103420005F4F089590958095709561957F4F8F4F70
:103430009F4F08950E944F1AA59F900DB49F900D25
:10344000A49F800D911D11240895B7FF0C941A1AA2
:103450000E941A1A821B930B0895A1E21A2EAA1B2E
:10346000BB1BFD010DC0AA1FBB1FEE1FFF1FA21734
:10347000B307E407F50720F0A21BB30BE40BF50B31
:10348000661F771F881F991F1A9469F760957095BA
:10349000809590959B01AC01BD01CF010895A29F3D
:1034A000B001B39FC001A39F700D811D1124911D18
:1034B000B29F700D811D1124911D0895EE0FFF1F05
:0C34C0000590F491E02D0994F894FFCFE2
:1034CC00100101FFFFFFFF00E10000000000000100
:1034DC0000000000C18081000000000000005B08BB
:1034EC00F3097C087108C20880089E0800000000DF
:1034FC00CF0B6E093E0D3D0D413A00506C617920A9
:10350C0067616D6500423A00436F646500436F6408
:10351C00653A004672616E6B2076616E20646520A0
:10352C0056656E004C61736572004D617A6500578B
:10353C00656C6C20646F6E650047616D65206F76FD
:0A354C006572004C6576656C0000A6
:00000001FF
