:100000000C94CA0A0C94F20A0C94F20A0C94F20AA8
:100010000C94F20A0C94F20A0C94F20A0C94F20A70
:100020000C94F20A0C94F20A0C94FB110C946A12D0
:100030000C94F20A0C94F20A0C94F20A0C94F20A50
:100040000C94F20A0C94F20A0C94F20A0C94F20A40
:100050000C94F20A0C94F20A0C94F20A0C949C147C
:100060000C94F20A0C94F20A0C94F20A0C94F20A20
:100070000C94F20A0C94F20A0C94F20A0C94F20A10
:100080000C94F20A0C94F20A0C94F20A0C94F20A00
:100090000C94F20A0C94F20A0C94F20A0C94F20AF0
:1000A0000C94F20A0C94F20A0C94F20A000000007C
:1000B00000040000000B000000000000000000131E
:1000C000000000000000000000000000000000042C
:1000D000000B000000000000000000000000000015
:1000E000150000000000000000000B0000060000EA
:1000F00000000000000000000000130000000C00E1
:1001000000000000000000000000000013000400D8
:1001100000000000000000000000090000000000D6
:1001200000000000000000000004000000000004C7
:10013000000A001100001300000000000000000091
:100140000000000000140004000000000004001182
:10015000001100040000000000040000000900007D
:1001600000000000000400120A000004000000006B
:10017000000600000A000006000000000000000069
:1001800000001504000000000006000000000C0044
:100190000000000000000000090000000000130043
:1001A000000400000B00000400000011000000002B
:1001B000010000000000000000000000000000003E
:1001C000000000000000130008000C000000000008
:1001D000000000000D000000000000140004000BEF
:1001E0000000000400000500000400000000000002
:1001F000000000000C0000001400000400000000DB
:1002000000080000000010000A00000000000000CC
:1002100000000000000000001504050000000C04B0
:10022000000011000B04001100110000000000008C
:1002300000000000000A0004130000000004000099
:10024000000000060009000000000000000000009F
:10025000000000000004091111110004000000005A
:10026000000400111111000400000000150400003A
:10027000000000041300000000040000110000044E
:100280000000000C00060011000C0000000000003F
:100290000004000A00000004000013000004000A2B
:1002A000000000060000000000000A00000000043A
:1002B000000000000C040000000000041300000017
:1002C00000060E0000000008000000110004000CF1
:1002D00000000004001100000004110000000004F0
:1002E00000120000000400000100010000110011D4
:1002F00000000A00000001000011001100000000D1
:1003000012000000000B000011041300050000049F
:1003100000001100000400000000000400000000C4
:10032000090400140000000400050000000400009F
:1003300000000004001100000C040000000900008F
:100340000000140B00060A00000000060000000078
:100350000C06000000000C06000909000006000061
:10036000000B0F040000000000040000070000065E
:10037000130000000000000000000000000000006A
:10038000000400110000000400050C011504000029
:1003900000000C0400000000000000000B0000043E
:1003A0000000050000040001000000040000000C33
:1003B00000000012000000000A0000000004000518
:1003C00000000004000012000004000000000C0601
:1003D00009000000000000001400000600000000FA
:1003E0000C060A0000000006000000000C060A00CF
:1003F000000000000B1400000000000000000000DE
:1004000001000000010000000100010000010100E6
:10041000000000000C0000041100001100040000A6
:100420000000000400000C0015040000000000069D
:10043000000000000004000011000004000D130083
:100440000004000000000004000A00000008140B73
:10045000110B00060000110000060000000000065D
:100460000000110000060900110009000000000C46
:10047000140411000B00000400000000000400112F
:1004800011000004010000000006000E000000043E
:100490000000000000040000120000040000000042
:1004A0000908000000000000000B14000004000018
:1004B00000000006000000000006000000000C061E
:1004C000090009000000130000000C0600000000F5
:1004D00000060A0000000C060000000000060009EB
:1004E00000000C06001400000004000000000004DE
:1004F000000007000004000000000C0400000000E1
:1005000010000000010000040011000000040011B0
:1005100000150904000000000C0609000000000698
:10052000000B0000000400000C0B00060A00000095
:100530000C0600000000000600000012000600008B
:10054000000000040000001200040000000000068B
:1005500000000D000D08000000000000000B00006E
:100560000006000000000C06130000000C060A0044
:10057000000000060000000900000F0000000B044E
:10058000001100150004000000000004000000112C
:1005900000040000000000080000000B00060A0034
:1005A00000000006000013000C06000000000C060E
:1005B0000009000900060A00000010040000000005
:1005C000000400000001000400000000000600120A
:1005D00000001008000014000004000000010004E6
:1005E0000000000000040000110000060E000000E2
:1005F00010080B0000000004001100150B0400009F
:1006000000000004000000000004000011000006CB
:100610000000000B000413000000000400000000B4
:1006200000060A0000000008000D000000000000A5
:10063000000F0B0400110A00000400000000000677
:10064000000011000006001200090008000B0A005B
:10065000000400001100000400000C000004000071
:1006600011000006000000001206000A000000044D
:10067000000011000004130000001104000000003D
:100680001006000E000000080000000014040A001C
:10069000000000040000000000040000000000064C
:1006A0000E0000000D08000014000004000100010D
:1006B00000040A0000000006000000010006000916
:1006C00000000900000F00000004000000001004FA
:1006D0000000000000060000011500060E000000EA
:1006E00000080000000A00040011001100040000CE
:1006F00000000004001100110004090012000006AF
:100700000A0000000F0414000000000400000000B4
:1007100000040000050000060900000009080000B0
:100720000000000411111111110413000000000455
:100730000A00000C0906111111111106000F001416
:100740000004000000000C0400000000000600008F
:100750000000000600000D000C080000000000046E
:10076000000000000104000012110004000D0B0045
:1007700000060000000000080B00000F000400004D
:100780001400000400000000000400000000000647
:100790000000000010070000000B0006130000001E
:1007A0000C06000000000C06000000000C0600090A
:1007B00009000006000014000004000F00000004FF
:1007C00000000E0000060E00000000060000000001
:1007D00000080000000B00040000000700040000F7
:1007E00000000004000000100004001200000906D0
:1007F0000000150B000400001100000400000000C0
:1008000000040011001100060000090009060000A4
:1008100000000B040A00000000060000000C0006A7
:100820000000130000060009000900060B000B0081
:100830000F04000E00000004000007000004000088
:1008400000000006130000000006000F000F000467
:100850000B000B0014040000000000060000001153
:1008600000060100000000080A000000000400006B
:100870000000100400000000000600000000150643
:100880000009000D0008000A00000004000011111A
:100890000004130000000006000000000C06000920
:1008A000000000000000000000040011000015041A
:1008B0000000000010040A0000110B0600000000F8
:1008C000000800000B000006000000000C061300EA
:1008D00000000C060A0000000006000000090000ED
:1008E0000000000000000000000000000000000008
:1008F00000000000000000000000000000000000F8
:100900000000003E5B4F5B3E3E6B4F6B3E1C3E7CEF
:100910003E1C183C7E3C181C577D571C1C5E7F5E9D
:100920001C00183C1800FFE7C3E7FF00182418005C
:10093000FFE7DBE7FF30483A060E262979292640F3
:100940007F050507407F05253F5A3CE73C5A7F3E1F
:100950001C1C08081C1C3E7F14227F22145F5F00B1
:100960005F5F06097F017F006689956A606060604D
:100970006094A2FFA29408047E040810207E201038
:1009800008082A1C08081C2A08081E101010100C41
:100990001E0C1E0C30383E3830060E3E0E0600008F
:1009A00000000000005F00000007000700147F1433
:1009B0007F14242A7F2A12231308646236495620A2
:1009C000500008070300001C2241000041221C00C7
:1009D0002A1C7F1C2A08083E080800807030000886
:1009E00008080808000060600020100804023E515A
:1009F00049453E00427F40007249494946214149EC
:100A00004D331814127F1027454545393C4A494952
:100A10003141211109073649494936464949291EBC
:100A200000001400000040340000000814224114AB
:100A300014141414004122140802015909063E41FD
:100A40005D594E7C1211127C7F494949363E414125
:100A500041227F4141413E7F494949417F0909097E
:100A6000013E414151737F0808087F00417F4100EA
:100A70002040413F017F081422417F404040407F99
:100A8000021C027F7F0408107F3E4141413E7F09E6
:100A90000909063E4151215E7F0919294626494927
:100AA000493203017F01033F4040403F1F20402067
:100AB0001F3F4038403F6314081463030478040365
:100AC0006159494D43007F41414102040810200013
:100AD0004141417F04020102044040404040000384
:100AE00007080020545478407F2844443838444450
:100AF0004428384444287F385454541800087E0948
:100B00000218A4A49C787F0804047800447D400067
:100B10002040403D007F1028440000417F40007C81
:100B2000047804787C080404783844444438FC1879
:100B300024241818242418FC7C080404084854545D
:100B4000542404043F44243C4040207C1C2040208A
:100B50001C3C4030403C44281028444C9090907CF1
:100B60004464544C44000836410000007700000003
:100B70004136080002010204023C2623263C1EA145
:100B8000A161123A4040207A3854545559215555A4
:100B90007941215454784121555478402054557955
:100BA000400C1E52721239555555593954545459E6
:100BB00039555454580000457C410002457D42009F
:100BC00001457C40F0292429F0F0282528F07C54A8
:100BD0005545002054547C547C0A097F49324949C8
:100BE00049323248484832324A4848303A41412135
:100BF0007A3A42402078009DA0A07D39444444398F
:100C00003D4040403D3C24FF2424487E4943662B20
:100C10002FFC2F2BFF0929F620C0887E09032054C2
:100C20005479410000447D413048484A32384040C0
:100C3000227A007A0A0A727D0D19317D2629292F20
:100C400028262929292630484D4020380808080838
:100C500008080808382F10C8ACBA2F102834FA003A
:100C6000007B000008142A142222142A140895007C
:100C7000220095AA005500AAAA55AA55AA0000006C
:100C8000FF00101010FF00141414FF001010FF00DC
:100C9000FF1010F010F0141414FC001414F700FFEF
:100CA0000000FF00FF1414F404FC141417101F10AC
:100CB000101F101F1414141F00101010F00000005B
:100CC000001F101010101F10101010F01000000066
:100CD000FF101010101010101010FF10000000FF77
:100CE000140000FF00FF00001F10170000FC04F4B8
:100CF00014141710171414F404F40000FF00F71470
:100D0000141414141414F700F714141417141010F6
:100D10001F101F141414F4141010F010F000001F12
:100D2000101F0000001F14000000FC140000F01051
:100D3000F01010FF10FF141414FF141010101F00F7
:100D4000000000F010FFFFFFFFFFF0F0F0F0F0FFF9
:100D5000FFFF0000000000FFFF0F0F0F0F0F3844D0
:100D60004438447C2A2A3E147E02020606027E0291
:100D70007E0263554941633844443C04407E201E52
:100D80002006027E020299A5E7A5991C2A492A1C81
:100D90004C7201724C304A4D4D303048784830BC6E
:100DA000625A463D3E494949007E0101017E2A2A98
:100DB0002A2A2A44445F444440514A444040444A19
:100DC00051400000FF0103E080FF000008086B6B4A
:100DD000083612362436060F090F060000181800D0
:100DE00000001010003040FF0101001F01011E0033
:100DF000191D1712003C3C3C3C0000000000F0F8BC
:100E00009C8E8783878E9CF8F00000FEFF0303030F
:100E10000303070EFCF80000FEFF030303030307B0
:100E20000EFCF80000FFFF00000000000000FFFFC4
:100E30000000FEFF8383838383C7EE7C380000F8C5
:100E4000FC0E07030303070EFCF800003F7FE0C021
:100E50008080C0E07F3FFFFF01010101010101FF30
:100E6000FF0000FFFF0C0C0C0C1C3E77E3C10000E0
:100E70007FFFC0C0C0C0C0E0703F1F00001F3F70B8
:100E8000E0C0C0C0E0703F1F00007FFFC1C1C1C112
:100E9000C1E3773E1C00001F3F70E0C0C0C0E0709F
:100EA0003F1F000000000001FFFF01000000D5F01F
:100EB0008D14A1C881CFD9F1AF20007F37A052A9EE
:100EC000D2BD2AA54AA952AA576909D739259554EE
:100ED00052479F544A2AA9A472FCD9ED769DDD6E33
:100EE00067DB6EB7DBED763B6D3ABBDDAE83A6D23A
:100EF000E9743A9D4EA783971C577ACB64A373106D
:100F00009C8A536DF9A45232B973CF4B2763744A4C
:100F10006E77BC84CA3925A35A2AE7141F6FFF7F56
:100F20006AA9A4729093D7AD2E59C94AD6EA542A19
:100F3000954AA5D3E9743A9D4EA7D3E9743A9D4EDC
:100F4000A7D3E9DCE56A5939692B79B9DAA5D3E980
:100F5000743A9D4EA7D3E974EE72B5BB5CE9AB530E
:100F6000551A81DB6DB4DBEDB4D9ED36FAF476BBFE
:100F70004D6FB7B36DB7DBED76BB9D2C9D5E6FB744
:100F8000DBED36E42F955410B4AE525DADCBD5EE0B
:100F900072B54BA7D3E9743A9D4EA7D3E9743A9D35
:100FA0004EA7D3E9743A77B9DA5DAE645D9DAAD2F3
:100FB000985C2AA7E452393955D2299828C599C294
:100FC0009452729B53CE29A95CB1369D54369DDA5A
:100FD0006ED54DE8B6E954A73E95CA2AE9149F8A12
:100FE0005429A7A4928A5849252B59C94AA956D2EF
:100FF000291B5D3A9D4EA7D3E9743A9D4EA952A58F
:101000009474B793EE924A2A59C9743A9D4EA7D365
:1010100095DC967795ABA445E15239A7A492EA56A0
:10102000BDDD061739E79C934A2AA9A4928A6BABC7
:10103000A4934A2AB974CE3947B6555249259573B7
:101040004E4945BA55D24925955452C9E976CE390B
:101050003796838A9CAB6C5DD57ABDACEC32BAE82E
:10106000A2CB67D7D975769D8D2EBAE8A28B2EBA02
:101070005454A95E2A554A2AD55355057E4AE97427
:10108000B2B2CBCA0ECFC5D5B9EDE5B61D59854371
:101090001010E0E0C08040700C02625C40404040B4
:1010A00040807F7F3F10202040404040555555559F
:1010B000350A03070E1C3870E04040E070381C0E03
:1010C0000703C0E070381C0E070202070E1C3870C0
:1010D000E0C009090000000000000000000000005E
:1010E000000000000000FF050A142850A040800105
:1010F0000101010101010101FF41A15129150B0568
:101100000301010000000000000003050B15295138
:10111000A141FF0000000000000001018040A0503C
:1011200028140A05FF010101010101010101030564
:101130000A142850A04080000000000000000101B7
:101140008040A05028140A0503010100000000009F
:101150000000070D1F367CD8F060C00000000000C2
:1011600000010101C060F0D87C361F0D07010101AC
:10117000000000000000FF00384444443800FF0134
:101180000101010101010101FF0139454545390115
:1011900001010101010101010101FF01394545453D
:1011A0003901FF0100000000000000010101394584
:1011B00045453901FF01010101010101010155000E
:1011C0003844444438005501000100010001000189
:1011D0005500394445443900010100010001000176
:1011E0000001550039444544390055010000000014
:1011F0000000000101003944454439005501000157
:10120000000100010001FF935539FF395593FF019B
:10121000010101010101010100080CFE87FE0C081B
:10122000000000000101010000003838282828EEE5
:101230007C3810000000000000000000002060FF6B
:10124000C3FF602000000000000100000000103813
:101250007CEE28282838380000000000000000003C
:10126000FF00387C7C7C3800FF0101010101010195
:101270000101FF01397D7D7D39010101010101017C
:1012800001010101FF01397D7D7D3901FF01000070
:101290000000000000010101397D7D7D3901FF0161
:1012A00001010101010101015500387C7C7C3800FD
:1012B000550100010001000100015500397C7D7CD1
:1012C0003900010100010001000100015500397CD5
:1012D0007D7C390055010000000000000001010084
:1012E000397C7D7C390055010001000100010001BD
:1012F0000000000D0004000D000001040000000DBE
:101300000204000D0000030400000A0204040002AD
:101310000000040408050007010408050007000494
:101320000805080501040002000004040000000292
:101330000404080508050204000708050304000763
:10134000080502040000000204040A02000004046C
:1013500000000A0204040007000700040007000759
:1013600003040A02000004040007000D0003000D3E
:10137000080501020805000D0201000D0007030029
:101380000805000D0001000D000701000007000D19
:101390000203000D080503020002000D0003000D0A
:1013A0000B0201020B02000D0201000D00020300FE
:1013B0000B02000D0001000D000201000002000DF3
:1013C0000203000D0B02030200000A0204040002E3
:1013D000000004040000000704050A0200000404E1
:1013E00000000A02040400020000040400000002DD
:1013F00004040805000004050000080504050002B7
:10140000000004040000000204040A0200000404B6
:1014100000000A02040400070000040500000002A6
:1014200004040A020000040400000A02040400028A
:10143000000004040000000704060A02000004047F
:1014400000000A020404000200000404000000027C
:101450000404080500000406000008050406000254
:10146000000004040000000204040A020000040456
:1014700000000A0204040007000004060000000245
:1014800004040A020000040400000A02040400022A
:10149000000004040000000204040A020000040426
:1014A00000000A0204040006000004040000000218
:1014B00004040805000004040000080504040002F8
:1014C000000004040000000604040A0200000404F2
:1014D00000000A02040400060000040400000002E8
:1014E00004040805000004040000080504040002C8
:1014F000000004040000000604040A0200000404C2
:101500000D0DFF0101010101010101010101FF1F99
:1015100010101010101010101010101F080B0002E7
:10152000020200000904000001020200000524007C
:10153000100105240101010424020605240600010E
:101540000705810310004009040100020A000000A1
:101550000705020240000007058302400000040363
:10156000090412010002EF0201404123368000010C
:101570000102030141726475696E6F204C4C430097
:1015800041726475696E6F204C656F6E6172646F35
:101590000000191511241FBECFEFDAE0DEBFCDBF6A
:1015A00011E0A0E0B1E0EAE5FEE302C005900D9293
:1015B000A639B107D9F726E0A6E9B1E001C01D922E
:1015C000A13EB207E1F71AE0CAECDAE004C02197C5
:1015D000FE010E94251FC93CD107C9F70E9436159C
:1015E0000C942B1F0C940000EDE8F2E0A0E0B8E0B2
:1015F00000800EBC8111012C1197A0FDFDCF01923E
:10160000B9F70DB4089580E0EDE8F2E081118FEFB5
:10161000002481938193819381930394D1F708955A
:101620009C01480F592F511D4138510514F040E8D5
:1016300050E0421BCB018770992791E001C0990FC0
:101640008A95EAF777FF02C0695F7F4FFB0183E06D
:10165000F595E7958A95E1F7F695FE2FEE27F79534
:10166000E795E20FF31FE357FD4F415030F08191B2
:10167000DF011197892B8C93F8CF0895FC0180919D
:101680008C02882311F13FB7F89482E08093E9003F
:101690002091F200822F90E01816190614F481E0D0
:1016A00090E0882339F0289844E640938B024091DB
:1016B000F1004083222339F02091F200211103C070
:1016C0002BE62093E8003FBF08958FEF9FEF08952A
:1016D0002FB7F89483E08093E9009091E800892F78
:1016E000807295FF04C09091F20080E4891B2FBFA7
:1016F00008958091830281110DC082E080937F0262
:1017000084E080938002109282021092810281E034
:10171000809383028FE792E00895CF93DF931F9227
:10172000CDB7DEB76983DC01ED91FC910280F381D6
:10173000E02D41E050E0BE016F5F7F4F09950F90B3
:10174000DF91CF91089583E08093E9008091F200CA
:10175000882319F08AE38093E80008950E94680BBB
:1017600090E00895CF93DF931F92CDB7DEB7FC01D1
:101770008485958597FD08C02FEF3FEF3587248737
:101780000F90DF91CF910895CE0101960E943E0BFC
:10179000019719F4898190E0F3CF8FEF9FEFF0CF9D
:1017A0000F931F93CF93DF931F92CDB7DEB78C01BA
:1017B000FC018485958597FF0BC0CE0101960E94A0
:1017C0003E0B019771F4898190E0F8019587848739
:1017D000F801848595850F90DF91CF911F910F912E
:1017E00008958FEF9FEFF1CFFC018485958597FDDC
:1017F0000BC09FB7F89482E08093E9008091F200DB
:101800009FBF90E0019608959FB7F89482E080937F
:10181000E9008091F2009FBF90E008954091790225
:1018200050917A0220917702309178024217530743
:10183000B4F49091E8009570E1F39091E80092FD86
:1018400019C08093F1008091790290917A020196FB
:101850008F739927892B19F48EEF8093E80080917C
:10186000790290917A02019690937A02809379029C
:1018700081E0089580E00895DF92EF92FF920F9348
:101880001F93CF93DF93D82E8A01EB017B01E40EE7
:10189000F51ECE15DF0559F0D7FE12C0FE0184916A
:1018A0000E940E0C21968111F4CF0FEF1FEFC8019B
:1018B000DF91CF911F910F91FF90EF90DF900895EE
:1018C0008881EECF0F931F93CF93DF931F92CDB7F5
:1018D000DEB782E0898342E450E06CE175E180E8A4
:1018E0000E943C0C0E94790BDC0112960D911C9118
:1018F0000115110589F0D801ED91FC910280F38169
:10190000E02DBE016F5F7F4FC801099597FD04C0B0
:10191000F80100851185ECCF89810F90DF91CF917F
:101920001F910F910895615030F02091F100FC015A
:1019300020830196F8CF289884E680938B0208953F
:10194000AF92BF92CF92DF92EF92FF920F931F93CD
:10195000CF93DF936C017B018B01040F151FEB010B
:101960005E01AE18BF08C017D10759F06991D601C2
:10197000ED91FC910190F081E02DC6010995892B34
:1019800079F7C501DF91CF911F910F91FF90EF90F3
:10199000DF90CF90BF90AF9008953FB7F8948091BB
:1019A000970190919801A0919901B0919A0126B563
:1019B000A89B05C02F3F19F00196A11DB11D3FBF87
:1019C000BA2FA92F982F8827BC01CD01620F711D56
:1019D000811D911D42E0660F771F881F991F4A9550
:1019E000D1F708958F929F92AF92BF92CF92DF92DC
:1019F000EF92FF926B017C010E94CD0C4B015C01C8
:101A0000C114D104E104F104B9F00E94CD0C6819AD
:101A100079098A099B09683E73408105910580F325
:101A200021E0C21AD108E108F10888EE880E83E0AF
:101A3000981EA11CB11CE4CFFF90EF90DF90CF90D7
:101A4000BF90AF909F908F9008958F929F92AF928A
:101A5000BF92CF92DF92EF92FF920F931F93CF939B
:101A6000DF936C017B018A0180910E01882309F4C8
:101A70005CC080918C02882309F457C080917E025B
:101A800080FF05C08091E00082608093E000E80163
:101A9000B12C8AEFA82E93E0892E2AE3922E20976C
:101AA00011F4BB20D9F10E94680B81110AC0AA94DD
:101AB000AA20D9F161E070E080E090E00E94F20C91
:101AC000EECF8C171D0611F00CF08C2F9FB7F894F9
:101AD0008092E9002091E80025FD02C09FBFDFCF82
:101AE000282F30E0C21BD30BF701815020F0419129
:101AF0004093F100FACFE20EF31EBB2021F090924A
:101B0000E800B12CEBCF8091E80085FDE7CF909203
:101B1000E800BB24B394209709F3F3CF5D9884E6E3
:101B200080937D02101611063CF081E090E0F601F2
:101B30009383828310E000E0C801DF91CF911F9171
:101B40000F91FF90EF90DF90CF90BF90AF909F905C
:101B50008F9008958F929F92AF92BF92CF92DF9213
:101B6000EF92FF920F931F93CF93DF93EC01FA0153
:101B7000C490319694914E5F5F4FAC2DB0E022231C
:101B8000E1F001E010E0892F877011F410E000E02F
:101B9000E92FE695E695E695E00FF12FF11DEA9F16
:101BA0008001EB9F100DFA9F100D1124209FF00172
:101BB000219FF00D11244E0F5F1F8D010C0F1D1F73
:101BC000101611060CF098C0C038D1050CF094C066
:101BD0009B01290F311D121613060CF08DC06034C5
:101BE00071050CF089C04115510509F485C0F62F27
:101BF000F770EF2E9B0177FF02C0295F3F4FE3E0B4
:101C000035952795EA95E1F7F22F77FF04C0EE208E
:101C100011F0FFEFF20F222733272C1B3D0BD7FDCE
:101C200002C030E020E0FC2C003811051CF080E8F8
:101C3000F82EFC1AF21A6F2F0F2E000C770B162FAE
:101C40001095FF3F0CF010E0E1E0892F877009F458
:101C5000E0E09695969596959E0F690F711D6930F7
:101C6000710514F098E09F1BD12EDF0E6D2D70E8EA
:101C7000670350011124B5016C0F7D1F620F731FA4
:101C8000C19E200D311D1124420F531F2E2D0E2CED
:101C9000000C330B9F0F9D1579F1EB01C357DD4FFE
:101CA00010E000E00F1510F5FA01E00FF11FE491CC
:101CB000F0E04F01022E02C0880C991C0A94E2F752
:101CC000D7FC03C0888188298883EE2059F086E0FC
:101CD0008D1544F05E01E0E8AE0EB11CF501808187
:101CE000892980830F5F1F4F2196DCCFD3944A0F41
:101CF0005B1F60587F4FCFCFDF91CF911F910F9126
:101D0000FF90EF90DF90CF90BF90AF909F908F901B
:101D100008952D9A0895BC0190E080E00C94F20C97
:101D20008FB18095807F669B88601C9B846008953E
:101D300090917002982329F490917102982381E088
:101D400009F480E00895CF93C82F0E94900E982F39
:101D50009C2381E09C1380E0CF91089580E00C9457
:101D6000F40A1F93CF93DF93DC0130E020E050E0D2
:101D700040E011E0C1E0D0E02617370791F114965A
:101D80008C911497811115C014961C931497129678
:101D90008D919C911397ED91FC911197E80FF91F8C
:101DA000E4911596EC931597019613969C938E9358
:101DB000129714969C91149715968C9115978923D8
:101DC00049F0FE01022E02C0EE0FFF1F0A94E2F757
:101DD0004E2B5F2B990F14969C9314972F5F3F4FB8
:101DE000CBCFCA01DF91CF911F9108958038910523
:101DF000B8F460347105A0F420E191E061FD94E055
:101E000060FD990F62FD9295687F269FD001112495
:101E1000A80FA357BD4F8C9140FF03C0892B8C9313
:101E2000089590958923FBCFEF92FF920F931F9314
:101E3000CF93DF938C01C62F462F70E060E00E94A5
:101E4000100B4C2F6EE370E0C8010E94100BF12CB8
:101E5000E12C41E0B701C8010E94F60E8FEFE81AAD
:101E6000F80A8FE3E816F104A1F7C00FD12FD11DB6
:101E7000219710E000E041E0B801CE010E94F60E8B
:101E80000F5F1F4F0F331105B1F7DF91CF911F91F6
:101E90000F91FF90EF9008952F923F924F925F9293
:101EA0006F927F928F929F92AF92BF92CF92DF926A
:101EB000EF92FF920F931F93CF93DF9300D000D048
:101EC00000D01F92CDB7DEB76D30D9F0309002014F
:101ED00040906E0250906F02832D90E09F838E831E
:101EE0006A3051F510926D0210926C0223E0880F57
:101EF000991F2A95E1F7480E591E50926F024092A1
:101F00006E0281E090E027960FB6F894DEBF0FBE18
:101F1000CDBFDF91CF911F910F91FF90EF90DF9098
:101F2000CF90BF90AF909F908F907F906F905F9079
:101F30004F903F902F900895A0906C02B0906D024A
:101F400095E0699FB0011124FB01E250F74F3F017A
:101F50006501212CF5E02F1629F1C3010196F3014B
:101F6000F491F9833C01420128E02A838981817040
:101F70008D8310E000E00315D0F4F801EC0DFD1D99
:101F8000FC83EB83F12CE12CE31470F4B4016E0DAF
:101F90007F1D4D818B819C810E94F60EFFEFEF1A11
:101FA000FF0AF2CF1982DFCF0F5F1F4FE4CF2981E5
:101FB000269529838A8181508A83EE81FF818E0E46
:101FC0009F1E8111D3CF2394CE0EDF1EF6E02F1279
:101FD000C1CFC501329C800D911D112490936D02DB
:101FE00080936C028ECFF999FECF92BD81BDF89A95
:101FF00080B50895F999FECF92BD81BDF89A20B5BC
:10200000261739F0F999FECF92BD81BD60BDFA9ACD
:10201000F99A0895AF92BF92CF92DF92EF92FF921A
:102020000F931F93CF93DF936FE38EE290E00E94B4
:10203000140F6FE080E790E00E94140F10922302CB
:102040008CE0D82E96E0C92E21E3B22E37E3A32EE2
:10205000C0912302C63008F046C0109222020C2F15
:1020600010E0CD9D70011124D0912202D530B8F539
:10207000C53091F5A09225028D2F90E02091260287
:10208000309127020217130759F42091280230914A
:1020900029022817390721F420917602211118C04E
:1020A000C89EF001C99EF00D1124E65DFD4FE00FC2
:1020B000F11FDD9DB00111246D5F7F4F80912502DE
:1020C000208142ED50E18E0D9F2D911D0E94AA0DA1
:1020D000DF5FD0932202C8CFB0922502CDCFCF5F71
:1020E000C0932302B5CFDF91CF911F910F91FF9045
:1020F000EF90DF90CF90BF90AF900895089590E05B
:1021000080E008958F929F92AF92BF920F931F939A
:10211000CF93DF93CDB7DEB7A1970FB6F894DEBFAC
:102120000FBECDBF19A2423008F44AE08E010F5D08
:102130001F4F842E912CB12CA12CA50194010E943B
:10214000F41EE62FB901CA01EA3044F5E05DD8017A
:10215000EE938D01232B242B252B79F790E080E043
:10216000109769F0FD0101900020E9F73197AF0168
:102170004A1B5B0BBD018DED96E00E94A00CA19661
:102180000FB6F894DEBF0FBECDBFDF91CF911F9188
:102190000F91BF90AF909F908F900895E95CD7CF3B
:1021A000FC0101900020E9F73197AF01481B590B62
:1021B000BC018DED96E00C94A00C0C94AC1E6F92BB
:1021C0007F928F929F92AF92BF92CF92DF92EF92C7
:1021D000FF920F931F93CF93DF93109208021092F8
:1021E00023029EE1899F80011124C6E084E0882EAD
:1021F000912CA12CB12C92E0C92ED12CE12CF12CE8
:1022000024E0622E32E0732ED1E0809123028630EA
:1022100008F0D0C010922202809122022091230265
:10222000853008F0C3C08C9FC001112430E0FC0150
:10223000E20FF31FE00FF11FE455FF4FE491865DBD
:102240009D4F820F931FDC01EC93E130B1F40E94AB
:10225000541EA50194010E94C21E60932502E091C4
:10226000220280912302CE9FF0011124E65DFD4FF2
:10227000E80FF11D8081680F608380912202209118
:102280002302C89FC0011124865D9D4F820F911DBE
:10229000FC0180818530B1F40E94541EA701960193
:1022A0000E94C21E60932502E091220280912302C7
:1022B000CE9FF0011124E65DFD4FE80FF11D8081F6
:1022C000680F60838091220220912302C89FC00181
:1022D0001124865D9D4F820F911DDC018C9187300A
:1022E000B1F40E94541EA70196010E94C21E609381
:1022F0002502E091220280912302CE9FF001112459
:10230000E65DFD4FE80FF11D8081680F60836091ED
:102310002202462F50E070912302272F30E0C49F05
:10232000C001C59F900D1124FC01E85BFD4FE20F39
:10233000F31F1082865D9D4FDC01A20FB31F8C91AD
:10234000753028F59FEF980F983008F4D08397EFF9
:10235000980F983068F08131D0F0C49FF001C59F8C
:10236000F00D1124E85BFD4FE20FF31F60820FC0F8
:10237000C49FF001C59FF00D1124E85BFD4FE20FF3
:10238000F31F7082909108029F5F90930802825120
:10239000843040F430930602209305025093B40138
:1023A0004093B3016F5F6093220236CF2F5F20937B
:1023B00023022BCF85E090E09093270280932602A2
:1023C000109229021092280290936702809366026D
:1023D00010926B0210926A02DF91CF911F910F91C0
:1023E000FF90EF90DF90CF90BF90AF909F908F9035
:1023F0007F906F9008951F920F920FB60F92112445
:102400008F939F938091E1009091E100937F90934F
:10241000E10083FF0FC01092E90091E09093EB0080
:102420001092EC0092E39093ED0010928C0298E0F1
:102430009093F00082FF22C093E09093E900909186
:10244000F200992319F09AE39093E80090917D02AD
:10245000992341F090917D02915090937D029111CA
:1024600001C05D9A90918B02992341F090918B026B
:10247000915090938B02911101C0289A84FF18C04B
:102480008091E2008E7E81608093E2008091E10085
:102490008F7E8093E10080917E028E7E80618093AA
:1024A0007E029F918F910F900FBE0F901F901895F5
:1024B00080FFF7CF8091E2008E7E80618093E20002
:1024C0008091E1008E7E8093E10080917E028E7E7D
:1024D0008160E5CF1F920F920FB60F921124CF9219
:1024E000DF92EF92FF920F931F932F933F934F939F
:1024F0005F936F937F938F939F93AF93BF93EF936C
:10250000FF93CF93DF93CDB7DEB76C97DEBFCDBF20
:102510001092E9008091E80083FF25C068E0CE01B9
:1025200045960E94930C82EF8093E8008D8987FF87
:1025300039C09091E80090FFFCCF982F907609F079
:1025400034C19E894F89588D2F89F88C911131C0E3
:10255000803861F580917C028093F1001092F10047
:102560008EEF8093E8006C960FB6F894DEBF0FBE36
:10257000CDBFDF91CF91FF91EF91BF91AF919F912F
:102580008F917F916F915F914F913F912F911F910B
:102590000F91FF90EF90DF90CF900F900FBE0F90B4
:1025A0001F9018959EEF9093E800C7CF1092F1000E
:1025B000D5CF913059F48111D3CF4130510581F6F7
:1025C00080917C028D7F80937C02CACF933049F446
:1025D0008111C6CF4130510519F680917C0282608D
:1025E000F2CF953041F48091E80080FFFCCF206865
:1025F0002093E300B5CF963009F0A9C00B8D1C8D58
:1026000022E01092E90010927A0210927902F212FE
:102610002EC010927802109277020E94620C1F82E4
:1026200099E09983FA8291E09E8390EA98879AEFE5
:1026300099872091790230917A02275F3F4F3C833E
:102640002B838D831092E90010927A021092790206
:10265000109378020093770249E050E0BE016F5F6B
:102660007F4F80E00E943C0C0E94620C79CF109357
:102670007802009377020E94790BDC0112960D918B
:102680001C910115110509F451C1D801ED91FC917E
:102690000480F581E02DBE016B5E7F4FC801099576
:1026A000009709F03EC1F80100851185EACFF3E0FB
:1026B000FF120EC08F89882309F440C0823061F474
:1026C00040E860E180E895E10E94E614811148CF7E
:1026D00081E28093EB0047CF813029F440E86BE042
:1026E00084E795E1F1CF833099F70E94790BDC0103
:1026F0001296ED90FC908E010F5F1F4F6801E11460
:10270000F10479F0D701ED91FC910680F781E02D7D
:10271000B801C7010995080F111DF701E084F18484
:10272000EECFD8011C92F60101900020E9F7319715
:10273000BF016C197D0940E0C601C6CF6EE575E1A9
:10274000FB01449150E080E80E943C0C09CF973097
:1027500009F4BECF983021F481E08093F10000CFDE
:10276000993009F0FDCE837009F0B2CFE4E1F1E0D9
:1027700081E031E096E32191222371F08093E9001A
:102780003093EB00DF0111972C912093EC00909394
:10279000ED008F5F873079F78EE78093EA00109223
:1027A000EA008F8980938C02DBCE8B8D9C8D1092FA
:1027B000E90010927A021092790290937802809345
:1027C0007702898D811192C08E899D89913A49F451
:1027D000813209F07DCF47E050E067E071E080E0B2
:1027E000B3CF913209F074CF833269F48F89988D19
:1027F000B0E0A0E08093030190930401A093050151
:10280000B0930601ADCE803269F48091E80082FF7A
:10281000FCCF67E087E091E00E94930C8BEF809300
:10282000E8009ECE823209F09BCE8F8980930E0104
:10283000EEEFFFE7859194918B3F9C4D51F1E0E0E5
:10284000F8E08091070190910801A0910901B091F1
:102850000A01803B9440A105B105F1F480910E017D
:1028600080FD1AC0EE3F8AE0F80789F587E797E711
:10287000918380838091600080937B0288E19BE05C
:102880000FB6F894A895809360000FBE90936000F7
:1028900067CEEEEFFAE0D5CF8081918187379747F9
:1028A00009F05ECEA89580916000886180936000F9
:1028B00080917B0280936000EE3F2AE0F20789F06E
:1028C0008091FE0A9091FF0A9183808349CE808196
:1028D00091818737980751F29093FF0A8093FE0AFF
:1028E000C5CF1092FF0A1092FE0A3ACE0E94790BD1
:1028F000DC0112960D911C910115110509F4E8CE29
:10290000D801ED91FC910190F081E02DBE016B5E4C
:102910007F4FC8010995811123CEF80100851185EB
:10292000EBCF181619060CF41BCED2CEF1E0FF1235
:10293000BECE62E675E104CF1F920F920FB60F92E2
:1029400011242F933F938F939F93AF93BF938091C5
:102950009C0190919D01A0919E01B0919F013091A9
:10296000960123E0230F2D3758F50196A11DB11DC7
:102970002093960180939C0190939D01A0939E01CA
:10298000B0939F018091970190919801A091990136
:10299000B0919A010196A11DB11D8093970190936A
:1029A0009801A0939901B0939A01BF91AF919F9123
:1029B0008F913F912F910F900FBE0F901F90189500
:1029C00026E8230F0296A11DB11DD2CFEF92FF92F0
:1029D0000F931F93CF93DF93F82E192FE62E042F1A
:1029E00081E0860F880F0E940E0C83E00E940E0C7F
:1029F000CF2DD12FEC0EFD2EF11CCE15DF05B9F039
:102A000007FF13C0FE0184910E940E0C182F80E076
:102A10000E940E0C812321968111EFCFDF91CF917F
:102A20001F910F91FF90EF9008958881EDCF81E085
:102A3000F5CFEDE8F6E01382128288EE93E0A0E095
:102A4000B0E084839583A683B7838EE191E0918380
:102A500080838FEF9FEF95878487EDEDF6E01382FB
:102A6000128280E391E0918380830895CF93DF9376
:102A7000CDB7DEB72C970FB6F894DEBF0FBECDBF33
:102A8000789484B5826084BD84B5816084BD85B549
:102A9000826085BD85B5816085BD80916E00816055
:102AA00080936E00109281008091810082608093FB
:102AB00081008091810081608093810080918000FD
:102AC000816080938000809191008260809391006A
:102AD000809191008160809391008091900081604D
:102AE000809390008091C10084608093C1008091A8
:102AF000C10082608093C1008091C1008160809399
:102B0000C1008091C30081608093C3008091C000A8
:102B100082608093C0008091C20081608093C20077
:102B200080917A00846080937A0080917A0082603C
:102B300080937A0080917A00816080937A008091FE
:102B40007A00806880937A0010928C0210927C0246
:102B500010927E028091D70081608093D70080EA36
:102B60008093D80089B5806189BD89B5826089BDAF
:102B700009B400FEFDCF61E070E080E090E00E94CB
:102B8000F20C8091D8008F7C80618093D800809176
:102B9000E000807F8093E0008091E1008E7E809352
:102BA000E1008DE08093E200559A209A81EC8093B9
:102BB0007C0085B1806F85B984B1877E84B984B18A
:102BC000876E84B95E9A5F988AB1806D8AB9769A69
:102BD0006E9881B3806F81BB899880B38D7080BB04
:102BE00080E58CBD81E08DBD85E090E00E948B0E7C
:102BF0005F9A85E090E00E948B0E5E985C98EEEA0A
:102C0000FEE08BEB9EE024912EBD00000DB407FE8C
:102C1000FDCF31968E179F07B1F75C9A81E88093BC
:102C20006400809165008160809365000E94AE0E13
:102C300080E80E94A30E8823A9F05C9885EA8EBDE7
:102C400000000DB407FEFDCF5C9A2E982F982D98AA
:102C50008091640080628093640081E083BF8895E6
:102C600013BEFCCF84E00E94A30E882309F448C061
:102C70002D9884E80E94A30E8823E1F00E94890E1B
:102C800088EC90E00E948B0E2F9882E090E00E94EA
:102C9000AC1E8F3F29F06FEF82E090E00E94B41EDF
:102CA00084EF91E00E948B0E2F9A84E80E94A30E7D
:102CB0008111FBCF84E10E94A30E8823E1F00E94E2
:102CC000890E88EC90E00E948B0E2E9882E090E0B6
:102CD0000E94AC1E882329F060E082E090E00E9410
:102CE000B41E84EF91E00E948B0E2E9A84E10E9424
:102CF000A30E8111FBCF88EC90E00E948B0EB2CF27
:102D00000E94890E82E090E00E94DD10882309F481
:102D100086C03E9A3F9A81E090E00E94DD10082F25
:102D20000470502E81FF14C001112E9801EF1FEF87
:102D300088E0A82EB12C9CE6E92EF12C80E40E94BC
:102D4000A30E882309F46EC02E9A2F9A0E94890E32
:102D500082E390E00E948B0E0E94900E182F81114A
:102D6000F7CF89E1809300010E94030B10926F025C
:102D700010926E0210926D0210926C028BEB9EE02C
:102D80009A8389831C821B821D821E8268E070E008
:102D9000CE0101960E94B10E01965C0168E070E0E0
:102DA000CE0101960E94B10E01967C0161E070E0B7
:102DB000CE0101960E94B10E082F1A141B040CF0CC
:102DC00038C11E141F040CF034C16701F3E0D59420
:102DD000C794FA95E1F7F7E0EF22FF24EF2819F006
:102DE0002FEFC21AD20A55245394F12CE12C912CC6
:102DF000812C442443948C149D040CF01AC1662445
:102E00006394712C61E070E0CE0101960E94B10ED6
:102E1000892B09F0D1C032E0630E711CF3CF3E98CC
:102E20003F9879CF552029F00430110511F42E9ADE
:102E30002F9881E00E94F40A980117FF04C022270E
:102E40003327201B310B27703327C80117FD079646
:102E5000B3E095958795BA95E1F717FF05C00197FF
:102E6000A501421B530B9A01BC017695762F66276C
:102E70007795679563577D4FB0E0A0E01501221A62
:102E8000330A8E3F5FEF950709F446C048E550E0EE
:102E9000FD01EA5AF14F4F013B01F0E86F0E711C42
:102EA0008F3F9807C9F0F401E41BF50B44906701CC
:102EB000C41AD50AC60ED71EE42DF0E0022E02C0B9
:102EC000EE0FFF1F0A94E2F7F887EF83F6014080C8
:102ED000FF814F2AF601408221153105C9F0F40126
:102EE000E41BF50B44906701C41AD50AC60CD71C25
:102EF000E42DF0E0022C02C0F595E7950A94E2F784
:102F0000F887EF83F6014080FF814F2AF601408267
:102F10004150510909F0C4CF0196A85ABF4F6058DB
:102F20007F4FA03BB10509F0ACCF0E94AE0E8FE001
:102F300090E00E948B0E0F5F1F4F0931110509F0C1
:102F4000FDCE552011F02F9A2D9880E991E00E9436
:102F50008B0E0E94890E81E090E00E94DD1080FFC0
:102F6000F7CE8AE090E00E94DD109FEF980F9E3F21
:102F700008F0EECE22E330E030936D0220936C0235
:102F800028E330E030936F0220936E020BE010E0F4
:102F9000682F8DED96E00E944C0FC8010E94DD1055
:102FA0000F5F1F4F0131110599F70E94AE0E88EE99
:102FB00093E00E948B0ECCCEB301CE0101960E940D
:102FC000B10E019630E020E02817390780F5011195
:102FD0001529652D660F41F5A4014F5F5F4F4930FC
:102FE000510588F470E8E716F1046CF4F401F695E5
:102FF000FE2FEE27F795E795EE0DFF1DE357FD4FEA
:103000007081172B1083EFEFEE1AFE0A55245394AC
:10301000EA14FB042CF04A0155245394F12CE12CC2
:103020002F5F3F4F162FD0CF562E612FF9CF04259B
:10303000E2CE10926D0210926C0208E310E0109341
:103040006F0200936E0288E391E00E94D0108DE041
:1030500090E090936D0280936C0210936F02009346
:103060006E028BE391E00E94D0108AE590E090938D
:103070006D0280936C0210936F0200936E0285E4E0
:1030800091E00E94D01087E690E090936D028093CB
:103090006C0210936F0200936E0288E491E00E942C
:1030A000D0100E94AE0EB8E3CB2ED12C10E2A12E90
:1030B000B12C88E00E94A30E811136C084E00E94EA
:1030C000A30E8823B1F310E000E0A8E3EA2EF12C70
:1030D00040E0B701C8010E94F60EFFEFEF1AFF0AA9
:1030E00020E4E216F104A1F70F5F1F4F0F3711051F
:1030F00061F710926D0210926C02D0926F02C09232
:103100006E028DE491E00E94D010B0926D02A09208
:103110006C02D0926F02C0926E0283E591E00E9431
:10312000D0100E94AE0EC5CF84E6809374028BEF60
:1031300091E00E94F30F863409F09AC08CEF91E081
:103140000E94F30F863509F093C08DEF91E00E9445
:10315000F30F80939B0180919B01811102C010921B
:10316000740280917402843609F09EC010E000E081
:10317000F8E3EF2EF12C40E0B701C8010E94F60EF3
:103180003FEFE31AF30A40E4E416F104A1F70F5FFE
:103190001F4F0F37110561F710926D0210926C02EC
:1031A00008E310E010936F0200936E0288E391E051
:1031B0000E94D0108DE090E090936D0280936C029D
:1031C00010936F0200936E0284E691E00E94D0108B
:1031D00086E490E090936D0280936C0210936F02EE
:1031E00000936E0285E491E00E94D01083E590E0A8
:1031F00090936D0280936C0210936F0200936E02A5
:103200008DE691E00E94D01089E690E090936D02E7
:1032100080936C0210936F0200936E0280E491E041
:103220000E94D0100E94AE0E88E00E94A30E811171
:10323000FBCF84E00E94A30E8111FBCF809174022A
:10324000843641F588E00E94A30E882321F0809106
:103250009B018093740284E00E94A30E882371F383
:103260001092740260E08DEF91E00E94FA0FE6CFB9
:1032700066E48BEF91E00E94FA0F66E58CEF91E037
:103280000E94FA0F60E08DEF91E00E94FA0F109219
:10329000740261CF88E00E94A30E8111FBCF84E00D
:1032A0000E94A30E8111FBCF809164008E7F8093DA
:1032B000640080917A00806480937A0080917A0023
:1032C00086FDFCCF00917800109179000E94CD0C12
:1032D000AB01BC01C801B0E0A0E0DC019927882760
:1032E0008C019D01040F151F261F371FC901B8014E
:1032F00020916400216020936400611571058105AF
:10330000910511F00E94A31E809174020E94DF10AB
:1033100006E08FB7F89440919C0150919D01609117
:103320009E0170919F018FBF8091A001882349F079
:103330001092A00180E090E0892B59F30E940000D8
:10334000E7CF8091A101142F181B812F90910001CC
:10335000191740F48F5F891768F781E083BF88955C
:1033600013BEE8CF21E02093A0014093A1018091FA
:10337000720290917302019690937302809372028D
:1033800087709927892B29F4809176028227809370
:10339000760280917102809370020E94900E809359
:1033A00071020E94030B81E08093020123E030E070
:1033B00030936D0220936C0242E050E050936F0214
:1033C00040936E0281E791E00E94D01082E190E08C
:1033D00090936D0280936C028CE090E090936F026A
:1033E00080936E0287E791E00E94D0108091740272
:1033F000863409F024C134E3E32EF12CF0926D02FF
:10340000E0926C0280E190E090936F0280936E02F4
:103410008CE791E00E94D010F0926D02E0926C0275
:1034200084E290E090936F0280936E0286E891E0D0
:103430000E94D01060E08DEF91E00E94FA0F84E0CE
:103440000E94980E8823F1F0809174029091750289
:1034500021E092279093750220910101211112C061
:10346000911110C08F5F873409F40FC180937402EB
:1034700010917402612F8DEF91E00E94FA0F812F5D
:103480000E94DF108091750281119FC380E80E9425
:10349000980E8823F9F080916A0290916B02209136
:1034A0006602309167020197089FF001099FF00DB5
:1034B0001124E20FF31FE85BFD4F4081423098F783
:1034C000909369028093680297FD04C090936B0209
:1034D00080936A0280E10E94980E882309F180910E
:1034E0006A0290916B02089FF001099FF00D112470
:1034F0002091660230916702E20FF31FE85BFD4FF7
:103500000196369620812230D8F7909369028093F5
:1035100068028530910524F490936B0280936A02CF
:1035200080E20E94980E882301F1809166029091BA
:10353000670240916A0250916B02049F9001059FBF
:10354000300D11240197FC01E20FF31FE85BFD4FE2
:1035500040814230B8F7909369028093680297FDEA
:1035600004C0909367028093660280E40E94980EE4
:10357000882309F1809166029091670240916A0266
:1035800050916B02049F9001059F300D112401960C
:10359000FC01E20FF31FE85BFD4F40814230B8F7BA
:1035A00090936902809368028630910524F4909389
:1035B00067028093660288E00E94980E882309F4CF
:1035C000ADC0809166029091670240916A0250916D
:1035D0006B02049FF001059FF00D1124E65DFD4F85
:1035E000E80FF91F2081853091050CF051C02111A1
:1035F00052C0A0912802B0912902609126027091D8
:1036000027020A9F90010B9F300D1124D901A85B5E
:10361000BD4FA60FB71FAC91A11180C0265D3D4FD5
:10362000D901A60FB71F6C9160831C925093290299
:103630004093280290932702809326026FC0109235
:103640006D0210926C022AE1E22EF12CF0926F02D0
:10365000E0926E0280E991E00E94D01080E290E05A
:1036600090936D0280936C02F0926F02E0926E0272
:103670006091740270E06F5F7F4F072E000C880B23
:10368000990B4AE00E948210DACE10927402F0CEBA
:10369000222309F443C06091280270912902461741
:1036A000570721F660912602709127028617970727
:1036B00009F0BCCF209325028530910514F5253003
:1036C00030F42F5F253009F458C020932502209153
:1036D00025023BEF320F323040F42F5F209325025A
:1036E000273019F425E0209325022091250239EF97
:1036F000320F323030F4283009F441C028E02093F2
:103700002502049F9001059F300D1124265D3D4F39
:10371000820F931F20912502FC0120830E940A1032
:1037200010917402163408F054C220916602309150
:10373000670285E32530310509F08FE28093250289
:1037400080916A0290916B024CE0489FB001499FC2
:10375000700D11246F5F7F4F429FC001439F900DFA
:1037600011243091250220E040E055E1830F911DA6
:103770000E94AA0D0E94AE0EDDCD21E0A6CF27E06B
:10378000BECF01968530910509F030C285E0809367
:10379000220280932302809108028093010181E03C
:1037A0008093070280910502909106029093BE01DA
:1037B0008093BD012091B3013091B4013093C001D9
:1037C0002093BF01029FF001039FF00D1124E65DDD
:1037D000FD4FE80FF91F80818251990B9093C20130
:1037E0008093C10121E030E03093C4012093C301F4
:1037F0008CE0582E95E0292E4424439480910702B2
:10380000882309F4D6C11092B20138E0839FF001F9
:103810001124EB54FE4F208131813093B10120936C
:10382000B001228133813093AF012093AE01248116
:1038300035813093AD012093AC01268137812A87F1
:1038400020932402815080930702A90155275C87A9
:103850004B878091AC019091AD01009709F098C021
:103860001092AB011092AA01EFEFFFEFF093A901C4
:10387000E093A801E090B001F090B1012091AA017D
:103880003091AB01E20EF31EF092B101E092B00173
:10389000C090AE01D090AF012091A8013091A90154
:1038A000C20ED31ED092AF01C092AE0155E0E51614
:1038B000F10410F04092B20175E0C716D10410F087
:1038C0004092B2012091B201211198CF0C9DF001DC
:1038D0000D9DF00D1124E65DFD4FEE0DFF1D1081D5
:1038E000198744E0149F90011124280F391F029F6B
:1038F000C001039F900D1124FC01E051FD4E849006
:103900008092A701FC01EF50FD4E74907092A601C9
:10391000FC01EE50FD4E64906092A501FC01ED505B
:10392000FD4EA490A092A401FC01EC50FD4E3490F9
:103930003092A301FC01EB50FD4E14911093A201B3
:10394000772009F456C0109225025C9CC0015D9C52
:10395000900D1124FC013796F887EF835E9CF001EF
:103960005F9CF00D1124BF968E0E9F2E911CB0907F
:103970002502B71490F541E06F817885C4018B0D65
:10398000911D0E94F60EFA85BF0EB0922502EFCF70
:103990008130910549F49093AB018093AA01109274
:1039A000A9011092A80166CF8230910559F41092B6
:1039B000AB011092AA0121E030E03093A9012093DD
:1039C000A80158CF8330910509F054CF4FEF5FEF36
:1039D0005093AB014093AA01E2CF2C9CF0012D9CA7
:1039E000F00D1124E75FFD4FEE0DFF1D80818F5F0D
:1039F0008083AA2091F15C9CF0015D9CF00D112464
:103A000031969F01260D311D38872F835E9C400122
:103A10005F9C900C112435E3830E911C712C612C5A
:103A2000B12C6A147B046CF46F817885660D771D68
:103A300041E0C4010E94F60E4B855C85640E751E44
:103A4000F0CF2C9CF0012D9CF00D1124E75FFD4F71
:103A5000EE0DFF1D80818F5F8083153009F06DC0F2
:103A60005A85513031F55C9CB0015D9C700D11247C
:103A70006D5F7F4F5E9CC0015F9C900D1124298576
:103A8000235F42ED50E1C1960E94AA0D0C9DF0010A
:103A90000D9DF00D1124E85BFD4FEE0DFF1D8081A3
:103AA000823039F48091010181508093010173E0EB
:103AB0007083E3E0E31508F46FC0E32DF0E0F093CA
:103AC000AD01E093AC01143018F5A0910702AF5F8F
:103AD000A093070228E0A29FD0011124AB54BE4F4F
:103AE0001196FC92EE921396DC92CE921297E12FF1
:103AF000F0E01596FC93EE931497898587508230F9
:103B000008F450C04B855C8517965C934E931697CE
:103B10002C9CC0012D9C900D1124875F9D4FE80EB9
:103B2000F91EF70180818B3010F04092B201809134
:103B3000B201882309F48DCE61CE163009F0B9CFD9
:103B40008A85823009F0B5CF5C9CB0015D9C700D18
:103B500011246D5F7F4F5E9CC0015F9C900D11240E
:103B60002985235F42ED50E1C1960E94AA0D1C9D5C
:103B7000F0011D9DF00D1124E85BFD4FEE0DFF1DC2
:103B80008081823009F095CF80910101815080932E
:103B9000010193E090838DCFF4E03F1294CF4092E7
:103BA000B20191CF82E090E017969C938E93169786
:103BB000AFCF8091010120E0811121E040E950E187
:103BC00068E270E08DE090E0D3CD0E940A10109181
:103BD0007402109276020E940A10163408F0CACDC0
:103BE00081E08093240290E080E032E0DC01A75F76
:103BF000BD4FFC01E85BFD4F26E0215009F4C1CD2B
:103C00001C924081433009F4308315963696F5CFE7
:103C10008F929F92AF92BF92CF92DF92EF92FF92DC
:103C2000CF93DF93EC01688179818A819B81611553
:103C300071058105910521F464E279ED8BE597E04A
:103C40002DE133EF41E050E00E94C21E49015A01CC
:103C50009B01AC01A7EAB1E40E94E11E6B017C016B
:103C6000ACEEB4EFA50194010E94EF1EC60ED71E64
:103C7000E81EF91EF7FE06C081E0C81AD108E10867
:103C800080E8F80AC882D982EA82FB82C701B601BD
:103C90009F77DF91CF91FF90EF90DF90CF90BF9013
:103CA000AF909F908F9008958F929F92AF92BF9206
:103CB000CF92DF92EF92FF9260910F01709110010D
:103CC0008091110190911201611571058105910595
:103CD00021F464E279ED8BE597E02DE133EF41E0EB
:103CE00050E00E94C21E49015A019B01AC01A7EAA3
:103CF000B1E40E94E11E6B017C01ACEEB4EFA501C2
:103D000094010E94EF1EC60ED71EE81EF91EF7FE94
:103D100006C081E0C81AD108E10880E8F80AC0921C
:103D20000F01D0921001E0921101F0921201C7012F
:103D3000B6019F77FF90EF90DF90CF90BF90AF904C
:103D40009F908F90089560930F017093100180935E
:103D50001101909312010895F999FECF92BD81BD92
:103D6000F89A992780B50895262FF999FECF1FBAA2
:103D700092BD81BD20BD0FB6F894FA9AF99A0FBE94
:103D800001960895052E97FB1EF400940E94D91EFB
:103D900057FD07D00E94F41E07FC03D04EF40C948C
:103DA000D91E50954095309521953F4F4F4F5F4F0D
:103DB000089590958095709561957F4F8F4F9F4F97
:103DC00008950E94161FA59F900DB49F900DA49F6B
:103DD000800D911D11240895B7FF0C94E11E0E94DF
:103DE000E11E821B930B0895A1E21A2EAA1BBB1B96
:103DF000FD010DC0AA1FBB1FEE1FFF1FA217B307B7
:103E0000E407F50720F0A21BB30BE40BF50B661FCC
:103E1000771F881F991F1A9469F760957095809590
:103E200090959B01AC01BD01CF010895A29FB00107
:103E3000B39FC001A39F700D811D1124911DB29FDE
:103E4000700D811D1124911D0895EE0FFF1F059027
:0A3E5000F491E02D0994F894FFCFDF
:103E5A00100101FFFFFFFF00E10000000000000168
:103E6A0000000000C18081000000000000008D0BEE
:103E7A00250DAE0BA30BF40BB20BD00B0000000008
:103E8A004C0FA00C7F107E10413A00506C617920D3
:103E9A0067616D6500423A00436F646500436F6471
:103EAA00653A004672616E6B2076616E2064652009
:103EBA0056656E00436F6E74696E7565004E657760
:103ECA00004C61736572004D617A650057656C6CD0
:103EDA0020646F6E650047616D65206F76657200BC
:063EEA004C6576656C00DA
:00000001FF
